{
  "contractName": "AvatarControls",
  "abi": [
    {
      "anonymous": false,
      "inputs": [
        {
          "indexed": false,
          "internalType": "string",
          "name": "_name",
          "type": "string"
        }
      ],
      "name": "New",
      "type": "event"
    },
    {
      "constant": false,
      "inputs": [
        {
          "internalType": "string",
          "name": "name",
          "type": "string"
        }
      ],
      "name": "createAvatar",
      "outputs": [],
      "payable": false,
      "stateMutability": "nonpayable",
      "type": "function"
    },
    {
      "constant": true,
      "inputs": [],
      "name": "getAvatarCount",
      "outputs": [
        {
          "internalType": "uint256",
          "name": "",
          "type": "uint256"
        }
      ],
      "payable": false,
      "stateMutability": "view",
      "type": "function"
    },
    {
      "constant": true,
      "inputs": [
        {
          "internalType": "address",
          "name": "owner",
          "type": "address"
        }
      ],
      "name": "getAvatarIdByAddress",
      "outputs": [
        {
          "internalType": "uint256",
          "name": "",
          "type": "uint256"
        }
      ],
      "payable": false,
      "stateMutability": "view",
      "type": "function"
    },
    {
      "constant": true,
      "inputs": [
        {
          "internalType": "uint256",
          "name": "id",
          "type": "uint256"
        }
      ],
      "name": "getAvatarNameById",
      "outputs": [
        {
          "internalType": "string",
          "name": "",
          "type": "string"
        }
      ],
      "payable": false,
      "stateMutability": "view",
      "type": "function"
    },
    {
      "constant": true,
      "inputs": [
        {
          "internalType": "address",
          "name": "owner",
          "type": "address"
        }
      ],
      "name": "getAvatarNameByAddress",
      "outputs": [
        {
          "internalType": "string",
          "name": "",
          "type": "string"
        }
      ],
      "payable": false,
      "stateMutability": "view",
      "type": "function"
    },
    {
      "constant": true,
      "inputs": [],
      "name": "getMyAvatarId",
      "outputs": [
        {
          "internalType": "uint256",
          "name": "",
          "type": "uint256"
        }
      ],
      "payable": false,
      "stateMutability": "view",
      "type": "function"
    },
    {
      "constant": true,
      "inputs": [],
      "name": "getMyAvatarName",
      "outputs": [
        {
          "internalType": "string",
          "name": "",
          "type": "string"
        }
      ],
      "payable": false,
      "stateMutability": "view",
      "type": "function"
    },
    {
      "constant": true,
      "inputs": [],
      "name": "getMyAvatarSector",
      "outputs": [
        {
          "internalType": "uint256",
          "name": "",
          "type": "uint256"
        }
      ],
      "payable": false,
      "stateMutability": "pure",
      "type": "function"
    },
    {
      "constant": true,
      "inputs": [],
      "name": "getMyAvatarShipId",
      "outputs": [
        {
          "internalType": "uint256",
          "name": "",
          "type": "uint256"
        }
      ],
      "payable": false,
      "stateMutability": "pure",
      "type": "function"
    },
    {
      "constant": true,
      "inputs": [
        {
          "internalType": "address",
          "name": "owner",
          "type": "address"
        }
      ],
      "name": "hasAvatar",
      "outputs": [
        {
          "internalType": "bool",
          "name": "",
          "type": "bool"
        }
      ],
      "payable": false,
      "stateMutability": "view",
      "type": "function"
    },
    {
      "constant": true,
      "inputs": [],
      "name": "haveAvatar",
      "outputs": [
        {
          "internalType": "bool",
          "name": "",
          "type": "bool"
        }
      ],
      "payable": false,
      "stateMutability": "view",
      "type": "function"
    }
  ],
  "bytecode": "0x608060405234801561001057600080fd5b50610a88806100206000396000f3fe608060405234801561001057600080fd5b50600436106100c95760003560e01c8063651a9ce611610081578063e715bb951161005b578063e715bb951461027e578063f8cc23d114610286578063fb1b535d146102a2576100c9565b8063651a9ce61461023b578063af7b5039146101ae578063bde847f914610261576100c9565b80634f3af590116100b25780634f3af590146101ae578063614b06aa146101b65780636505b2fd146101be576100c9565b80630b46d277146100ce57806346fd1fd014610106575b600080fd5b6100f4600480360360208110156100e457600080fd5b50356001600160a01b03166102c8565b60408051918252519081900360200190f35b6101ac6004803603602081101561011c57600080fd5b81019060208101813564010000000081111561013757600080fd5b82018360208201111561014957600080fd5b8035906020019184600183028401116401000000008311171561016b57600080fd5b91908080601f01602080910402602001604051908101604052809392919081815260200183838082843760009201919091525092955061035d945050505050565b005b6100f461040a565b6100f4610410565b6101c6610494565b6040805160208082528351818301528351919283929083019185019080838360005b838110156102005781810151838201526020016101e8565b50505050905090810190601f16801561022d5780820380516001836020036101000a031916815260200191505b509250505060405180910390f35b6101c66004803603602081101561025157600080fd5b50356001600160a01b03166105df565b6101c66004803603602081101561027757600080fd5b5035610735565b6100f46107a8565b61028e610802565b604080519115158252519081900360200190f35b61028e600480360360208110156102b857600080fd5b50356001600160a01b031661085c565b60408051633418b41160e21b81526000600482018190526001600160a01b0384166024830152915173__AvatarLibrary_________________________9163d062d044916044808301926020929190829003018186803b15801561032b57600080fd5b505af415801561033f573d6000803e3d6000fd5b505050506040513d602081101561035557600080fd5b505192915050565b61036e60008263ffffffff6108bf16565b7f9fe1d2da7d4b09c87c6fb87d391aa4f1c8f4a387ff0091fb166d0fe2e7606d97816040518080602001828103825283818151815260200191508051906020019080838360005b838110156103cd5781810151838201526020016103b5565b50505050905090810190601f1680156103fa5780820380516001836020036101000a031916815260200191505b509250505060405180910390a150565b60015b90565b60008073__AvatarLibrary_________________________632ff6501b90916040518263ffffffff1660e01b81526004018082815260200191505060206040518083038186803b15801561046357600080fd5b505af4158015610477573d6000803e3d6000fd5b505050506040513d602081101561048d57600080fd5b5051905090565b60408051634bea13ab60e11b8152600060048201819052336024830152915160609273__AvatarLibrary_________________________926397d427569260448083019392829003018186803b1580156104ed57600080fd5b505af4158015610501573d6000803e3d6000fd5b505050506040513d6000823e601f3d908101601f19168201604052602081101561052a57600080fd5b810190808051604051939291908464010000000082111561054a57600080fd5b90830190602082018581111561055f57600080fd5b825164010000000081118282018810171561057957600080fd5b82525081516020918201929091019080838360005b838110156105a657818101518382015260200161058e565b50505050905090810190601f1680156105d35780820380516001836020036101000a031916815260200191505b50604052505050905090565b60408051634bea13ab60e11b81526000600482018190526001600160a01b0384166024830152915160609273__AvatarLibrary_________________________926397d427569260448083019392829003018186803b15801561064157600080fd5b505af4158015610655573d6000803e3d6000fd5b505050506040513d6000823e601f3d908101601f19168201604052602081101561067e57600080fd5b810190808051604051939291908464010000000082111561069e57600080fd5b9083019060208201858111156106b357600080fd5b82516401000000008111828201881017156106cd57600080fd5b82525081516020918201929091019080838360005b838110156106fa5781810151838201526020016106e2565b50505050905090810190601f1680156107275780820380516001836020036101000a031916815260200191505b506040525050509050919050565b604080517f1644427000000000000000000000000000000000000000000000000000000000815260006004820181905260248201849052915160609273__AvatarLibrary_________________________9263164442709260448083019392829003018186803b15801561064157600080fd5b60408051633418b41160e21b8152600060048201819052336024830152915173__AvatarLibrary_________________________9163d062d044916044808301926020929190829003018186803b15801561046357600080fd5b604080516352e716f160e11b8152600060048201819052336024830152915173__AvatarLibrary_________________________9163a5ce2de2916044808301926020929190829003018186803b15801561046357600080fd5b604080516352e716f160e11b81526000600482018190526001600160a01b0384166024830152915173__AvatarLibrary_________________________9163a5ce2de2916044808301926020929190829003018186803b15801561032b57600080fd5b33600090815260028301602052604090205460ff161561094057604080517f08c379a000000000000000000000000000000000000000000000000000000000815260206004820152601b60248201527f596f7520616c7265616479206861766520616e206176617461722e0000000000604482015290519081900360640190fd5b604080516020808201909252828152835460018181018087556000878152858120855180519297949693959394919093019261098292849291909101906109bb565b5050336000908152600180880160209081526040808420969095039095556002909701909352509020805460ff19169093179092555050565b828054600181600116156101000203166002900490600052602060002090601f016020900481019282601f106109fc57805160ff1916838001178555610a29565b82800160010185558215610a29579182015b82811115610a29578251825591602001919060010190610a0e565b50610a35929150610a39565b5090565b61040d91905b80821115610a355760008155600101610a3f56fea265627a7a723158201de9ce76cb88b0fda282629099ba269d26917e05196f3780c288bbb676907dbb64736f6c63430005100032",
  "source": "pragma solidity >=0.5.0 <0.6.0;\n\nimport \"./AvatarLibrary.sol\";\n\ncontract AvatarControls {\n\n    using AvatarLibrary for AvatarLibrary.AvatarStorage;\n    AvatarLibrary.AvatarStorage avatars;\n\n    event New(string _name);\n    function createAvatar(string memory name) public {\n        avatars.createAvatar(name);\n        emit New(name);\n    }\n\n    function getAvatarCount() external view returns(uint) {\n        return avatars.getAvatarCount();\n    }\n\n    function getAvatarIdByAddress(address owner) public view returns(uint) {\n        return avatars.getAvatarIdByAddress(owner);\n    }\n\n    function getAvatarNameById(uint id) public view returns(string memory) {\n        return avatars.getAvatarNameById(id);\n    }\n\n    function getAvatarNameByAddress(address owner) public view returns(string memory) {\n        return avatars.getAvatarNameByAddress(owner);\n    }\n\n    function getMyAvatarId() public view returns(uint) {\n        return avatars.getAvatarIdByAddress(msg.sender);\n    }\n\n    function getMyAvatarName() public view returns(string memory) {\n        return avatars.getAvatarNameByAddress(msg.sender);\n    }\n\n    function getMyAvatarSector() public pure returns(uint) {\n        // todo: has to look at other contract\n        uint test = 1;\n        return test;\n    }\n\n    function getMyAvatarShipId() public pure returns(uint) {\n        // todo: has to look at other contract\n        uint shipid = 1;\n        return shipid;\n    }\n\n    function hasAvatar(address owner) public view returns(bool) {\n        return avatars.hasAvatar(owner);\n    }\n\n    function haveAvatar() public view returns(bool) {\n        return avatars.hasAvatar(msg.sender);\n    }\n\n}",
  "sourcePath": "/home/koda/projects/orbiter8/prototype/contracts/Orbiter8/StarSystems/Avatar/AvatarControls.sol",
  "compiler": {
    "name": "solc",
    "version": "0.5.16+commit.9c3226ce.Emscripten.clang"
  },
  "schemaVersion": "3.4.3",
  "updatedAt": "2023-02-28T04:03:36.221Z",
  "networkType": "ethereum",
  "devdoc": {
    "methods": {}
  },
  "userdoc": {
    "methods": {}
  }
}