{
  "contractName": "MoonLibrary",
  "abi": [
    {
      "constant": true,
      "inputs": [],
      "name": "maxMoons",
      "outputs": [
        {
          "internalType": "uint8",
          "name": "",
          "type": "uint8"
        }
      ],
      "payable": false,
      "stateMutability": "view",
      "type": "function"
    }
  ],
  "bytecode": "0x608e610024600b82828239805160001a607314601757fe5b30600052607381538281f3fe730000000000000000000000000000000000000000301460806040526004361060335760003560e01c8063fbf7e09d146038575b600080fd5b603e6054565b6040805160ff9092168252519081900360200190f35b60088156fea265627a7a723158205857fc1919b846f87c7e8a122e1fb7fb48f7ced8019a597d4200db5fc88a17b464736f6c63430005100032",
  "source": "pragma solidity >=0.5.0 <0.6.0;\n\nlibrary MoonLibrary {\n\n    uint8 public constant maxMoons = 8;\n\n    struct Moon {\n        string name;\n        uint8 size;\n        uint8 class;\n        uint8 velocity;\n    }\n\n    //moon system?\n    struct MoonStorage {\n        mapping (uint256 => mapping(uint8 => Moon)) moons;\n    }\n\n    function getMaxMoons() internal pure returns (uint8) {\n        return maxMoons;\n    }\n\n    function getMoon(\n        MoonStorage storage self,\n        uint256 planetId,\n        uint8 moonId\n    ) internal view returns (\n        string memory,\n        uint8,\n        uint8,\n        uint8\n    ) {\n        require(self.moons[planetId][moonId].size > 0, \"That's no moon\");\n        return (\n            self.moons[planetId][moonId].name,\n            self.moons[planetId][moonId].size,\n            self.moons[planetId][moonId].class,\n            self.moons[planetId][moonId].velocity\n        );\n    }\n\n    function isMoon(\n        MoonStorage storage self,\n        uint256 planetId,\n        uint8 moonId\n    ) internal view returns (\n        bool\n    ) {\n        if (self.moons[planetId][moonId].size > 0) {\n            return true;\n        }\n        return false;\n    }\n\n    function getHasMoons (\n        MoonStorage storage self,\n        uint256 planetId\n    ) internal view returns (\n        bool[maxMoons] memory\n    ) {\n        bool[maxMoons] memory hasMoons;\n        for (uint8 i = 0; i < maxMoons; i++) {\n            if (isMoon(self, planetId, i)) {\n                hasMoons[i] = true;\n            } else {\n              hasMoons[i] = false;\n            }\n        }\n        return hasMoons;\n    }\n\n    /**\n    * Creates all of the moons to accompany a solar system\n    * returns array of ids\n    */\n    function createRandomMoon(\n        MoonStorage storage self,\n        uint256 planetId,\n        uint8 moonId,\n        uint256 seed\n    ) internal {        \n        //todo: this should be more intellegent \n        uint8 size = uint8(seed % (30 - moonId * 2)) + 1;\n        uint8 class = uint8((seed / 50) % 10);\n        uint8 velocity = uint8(((255 - moonId * 30) - ((seed / 2005) % 50)));\n        createMoon(\n            self,\n            planetId,\n            moonId,\n            'Moon',\n            size,\n            class,\n            velocity\n        );\n    }\n\n    /**\n    * Creates all of the moons to accompany a solar system\n    * returns array of ids\n    */\n    function createMoon(\n        MoonStorage storage self,\n        uint256 planetId,\n        uint8 moonId,\n        string memory name,\n        uint8 size,\n        uint8 class,\n        uint8 velocity\n    ) internal {\n        require(moonId < maxMoons, 'moon out of range');\n        //todo: require no moon exists there already\n        self.moons[planetId][moonId] = Moon(\n            name,\n            size,\n            class,\n            velocity\n        );\n    }\n\n    function renameMoon(\n        MoonStorage storage self, \n        uint256 planetId,\n        uint8 moonId, \n        string memory newName\n    ) internal {\n        self.moons[planetId][moonId].name = newName;\n    }\n}",
  "sourcePath": "/home/koda/projects/orbiter8/prototype/contracts/Orbiter8/StarSystems/SystemObjects/MoonLibrary.sol",
  "compiler": {
    "name": "solc",
    "version": "0.5.16+commit.9c3226ce.Emscripten.clang"
  },
  "schemaVersion": "3.4.3",
  "updatedAt": "2023-02-28T03:10:36.632Z",
  "networkType": "ethereum",
  "devdoc": {
    "methods": {}
  },
  "userdoc": {
    "methods": {}
  }
}