{
  "contractName": "Orbiter8",
  "abi": [
    {
      "anonymous": false,
      "inputs": [
        {
          "indexed": false,
          "internalType": "address",
          "name": "_sender",
          "type": "address"
        },
        {
          "indexed": false,
          "internalType": "string",
          "name": "_message",
          "type": "string"
        }
      ],
      "name": "ChatLog",
      "type": "event"
    },
    {
      "anonymous": false,
      "inputs": [
        {
          "indexed": false,
          "internalType": "address",
          "name": "_sender",
          "type": "address"
        },
        {
          "indexed": false,
          "internalType": "uint256",
          "name": "_planetId",
          "type": "uint256"
        },
        {
          "indexed": false,
          "internalType": "int16",
          "name": "_equipment",
          "type": "int16"
        },
        {
          "indexed": false,
          "internalType": "int16",
          "name": "_fuel",
          "type": "int16"
        },
        {
          "indexed": false,
          "internalType": "int16",
          "name": "_organics",
          "type": "int16"
        },
        {
          "indexed": false,
          "internalType": "int256",
          "name": "_value",
          "type": "int256"
        }
      ],
      "name": "PortTrade",
      "type": "event"
    },
    {
      "anonymous": false,
      "inputs": [
        {
          "indexed": false,
          "internalType": "string",
          "name": "_name",
          "type": "string"
        }
      ],
      "name": "ShipLaunch",
      "type": "event"
    },
    {
      "constant": false,
      "inputs": [
        {
          "internalType": "string",
          "name": "message",
          "type": "string"
        }
      ],
      "name": "sendChat",
      "outputs": [],
      "payable": false,
      "stateMutability": "nonpayable",
      "type": "function"
    },
    {
      "constant": false,
      "inputs": [
        {
          "internalType": "address",
          "name": "tokenAddress",
          "type": "address"
        }
      ],
      "name": "setPlanetTokenizer",
      "outputs": [],
      "payable": false,
      "stateMutability": "nonpayable",
      "type": "function"
    },
    {
      "constant": true,
      "inputs": [],
      "name": "getPlanetTokenizer",
      "outputs": [
        {
          "internalType": "address",
          "name": "",
          "type": "address"
        }
      ],
      "payable": false,
      "stateMutability": "view",
      "type": "function"
    },
    {
      "constant": false,
      "inputs": [
        {
          "internalType": "address",
          "name": "tokenAddress",
          "type": "address"
        }
      ],
      "name": "setShipTokenizer",
      "outputs": [],
      "payable": false,
      "stateMutability": "nonpayable",
      "type": "function"
    },
    {
      "constant": true,
      "inputs": [],
      "name": "getShipTokenizer",
      "outputs": [
        {
          "internalType": "address",
          "name": "",
          "type": "address"
        }
      ],
      "payable": false,
      "stateMutability": "view",
      "type": "function"
    },
    {
      "constant": false,
      "inputs": [
        {
          "internalType": "address",
          "name": "tokenAddress",
          "type": "address"
        }
      ],
      "name": "setCreditTokenizer",
      "outputs": [],
      "payable": false,
      "stateMutability": "nonpayable",
      "type": "function"
    },
    {
      "constant": true,
      "inputs": [],
      "name": "getCreditTokenizer",
      "outputs": [
        {
          "internalType": "address",
          "name": "",
          "type": "address"
        }
      ],
      "payable": false,
      "stateMutability": "view",
      "type": "function"
    },
    {
      "constant": true,
      "inputs": [],
      "name": "myBalance",
      "outputs": [
        {
          "internalType": "uint256",
          "name": "",
          "type": "uint256"
        }
      ],
      "payable": false,
      "stateMutability": "view",
      "type": "function"
    },
    {
      "constant": false,
      "inputs": [
        {
          "internalType": "address",
          "name": "avatarControlsAddress",
          "type": "address"
        }
      ],
      "name": "setAvatarControls",
      "outputs": [],
      "payable": false,
      "stateMutability": "nonpayable",
      "type": "function"
    },
    {
      "constant": false,
      "inputs": [],
      "name": "genesis",
      "outputs": [],
      "payable": false,
      "stateMutability": "nonpayable",
      "type": "function"
    },
    {
      "constant": false,
      "inputs": [],
      "name": "makeSolarSystem",
      "outputs": [],
      "payable": false,
      "stateMutability": "nonpayable",
      "type": "function"
    },
    {
      "constant": true,
      "inputs": [
        {
          "internalType": "uint256",
          "name": "shipId",
          "type": "uint256"
        }
      ],
      "name": "getShip",
      "outputs": [
        {
          "internalType": "string",
          "name": "",
          "type": "string"
        },
        {
          "internalType": "uint256",
          "name": "",
          "type": "uint256"
        },
        {
          "internalType": "uint256",
          "name": "",
          "type": "uint256"
        },
        {
          "internalType": "address",
          "name": "",
          "type": "address"
        }
      ],
      "payable": false,
      "stateMutability": "view",
      "type": "function"
    },
    {
      "constant": false,
      "inputs": [
        {
          "internalType": "string",
          "name": "name",
          "type": "string"
        }
      ],
      "name": "launchShip",
      "outputs": [],
      "payable": false,
      "stateMutability": "nonpayable",
      "type": "function"
    },
    {
      "constant": false,
      "inputs": [
        {
          "internalType": "string",
          "name": "name",
          "type": "string"
        }
      ],
      "name": "renameMyShip",
      "outputs": [],
      "payable": false,
      "stateMutability": "nonpayable",
      "type": "function"
    },
    {
      "constant": true,
      "inputs": [
        {
          "internalType": "uint256",
          "name": "planetId",
          "type": "uint256"
        }
      ],
      "name": "getPlanet",
      "outputs": [
        {
          "internalType": "string",
          "name": "",
          "type": "string"
        },
        {
          "internalType": "uint256",
          "name": "",
          "type": "uint256"
        },
        {
          "internalType": "uint8[4]",
          "name": "",
          "type": "uint8[4]"
        },
        {
          "internalType": "address",
          "name": "",
          "type": "address"
        },
        {
          "internalType": "bool[8]",
          "name": "",
          "type": "bool[8]"
        },
        {
          "internalType": "bool",
          "name": "",
          "type": "bool"
        }
      ],
      "payable": false,
      "stateMutability": "view",
      "type": "function"
    },
    {
      "constant": false,
      "inputs": [
        {
          "internalType": "uint256",
          "name": "id",
          "type": "uint256"
        },
        {
          "internalType": "string",
          "name": "name",
          "type": "string"
        }
      ],
      "name": "renamePlanet",
      "outputs": [],
      "payable": false,
      "stateMutability": "nonpayable",
      "type": "function"
    },
    {
      "constant": false,
      "inputs": [
        {
          "internalType": "uint256",
          "name": "planetId",
          "type": "uint256"
        },
        {
          "internalType": "string",
          "name": "planetName",
          "type": "string"
        }
      ],
      "name": "claimPlanet",
      "outputs": [],
      "payable": false,
      "stateMutability": "nonpayable",
      "type": "function"
    },
    {
      "constant": false,
      "inputs": [
        {
          "internalType": "uint256",
          "name": "planetId",
          "type": "uint256"
        },
        {
          "internalType": "string",
          "name": "stationName",
          "type": "string"
        }
      ],
      "name": "buildStation",
      "outputs": [],
      "payable": false,
      "stateMutability": "nonpayable",
      "type": "function"
    },
    {
      "constant": true,
      "inputs": [
        {
          "internalType": "uint256",
          "name": "orbitalId",
          "type": "uint256"
        }
      ],
      "name": "getLocalPlanet",
      "outputs": [
        {
          "internalType": "string",
          "name": "",
          "type": "string"
        },
        {
          "internalType": "uint256",
          "name": "",
          "type": "uint256"
        },
        {
          "internalType": "uint8[4]",
          "name": "",
          "type": "uint8[4]"
        },
        {
          "internalType": "address",
          "name": "",
          "type": "address"
        },
        {
          "internalType": "bool[8]",
          "name": "",
          "type": "bool[8]"
        },
        {
          "internalType": "bool",
          "name": "",
          "type": "bool"
        }
      ],
      "payable": false,
      "stateMutability": "view",
      "type": "function"
    },
    {
      "constant": true,
      "inputs": [
        {
          "internalType": "uint256",
          "name": "planetId",
          "type": "uint256"
        },
        {
          "internalType": "uint8",
          "name": "moonId",
          "type": "uint8"
        }
      ],
      "name": "getMoon",
      "outputs": [
        {
          "internalType": "string",
          "name": "",
          "type": "string"
        },
        {
          "internalType": "uint8",
          "name": "",
          "type": "uint8"
        },
        {
          "internalType": "uint8",
          "name": "",
          "type": "uint8"
        },
        {
          "internalType": "uint8",
          "name": "",
          "type": "uint8"
        }
      ],
      "payable": false,
      "stateMutability": "view",
      "type": "function"
    },
    {
      "constant": false,
      "inputs": [
        {
          "internalType": "uint256",
          "name": "planetId",
          "type": "uint256"
        },
        {
          "internalType": "uint8",
          "name": "moonId",
          "type": "uint8"
        },
        {
          "internalType": "string",
          "name": "name",
          "type": "string"
        }
      ],
      "name": "renameMoon",
      "outputs": [],
      "payable": false,
      "stateMutability": "nonpayable",
      "type": "function"
    },
    {
      "constant": true,
      "inputs": [
        {
          "internalType": "uint256",
          "name": "planetId",
          "type": "uint256"
        }
      ],
      "name": "getStation",
      "outputs": [
        {
          "internalType": "string",
          "name": "",
          "type": "string"
        },
        {
          "internalType": "uint8",
          "name": "",
          "type": "uint8"
        },
        {
          "internalType": "int16[3]",
          "name": "",
          "type": "int16[3]"
        },
        {
          "internalType": "uint16[4]",
          "name": "",
          "type": "uint16[4]"
        }
      ],
      "payable": false,
      "stateMutability": "view",
      "type": "function"
    },
    {
      "constant": false,
      "inputs": [
        {
          "internalType": "uint256",
          "name": "id",
          "type": "uint256"
        },
        {
          "internalType": "string",
          "name": "name",
          "type": "string"
        }
      ],
      "name": "renameStation",
      "outputs": [],
      "payable": false,
      "stateMutability": "nonpayable",
      "type": "function"
    },
    {
      "constant": false,
      "inputs": [
        {
          "internalType": "uint256",
          "name": "id",
          "type": "uint256"
        }
      ],
      "name": "addPortToStation",
      "outputs": [],
      "payable": false,
      "stateMutability": "nonpayable",
      "type": "function"
    },
    {
      "constant": false,
      "inputs": [
        {
          "internalType": "uint256",
          "name": "planetId",
          "type": "uint256"
        },
        {
          "internalType": "int16",
          "name": "equipment",
          "type": "int16"
        },
        {
          "internalType": "int16",
          "name": "fuel",
          "type": "int16"
        },
        {
          "internalType": "int16",
          "name": "organics",
          "type": "int16"
        }
      ],
      "name": "tradeAtPort",
      "outputs": [],
      "payable": false,
      "stateMutability": "nonpayable",
      "type": "function"
    },
    {
      "constant": false,
      "inputs": [
        {
          "internalType": "uint256",
          "name": "planetId",
          "type": "uint256"
        },
        {
          "internalType": "uint8",
          "name": "holds",
          "type": "uint8"
        }
      ],
      "name": "addHoldsToShip",
      "outputs": [],
      "payable": false,
      "stateMutability": "nonpayable",
      "type": "function"
    },
    {
      "constant": false,
      "inputs": [
        {
          "internalType": "uint256",
          "name": "destinationSystemId",
          "type": "uint256"
        }
      ],
      "name": "moveToSystem",
      "outputs": [],
      "payable": false,
      "stateMutability": "nonpayable",
      "type": "function"
    },
    {
      "constant": true,
      "inputs": [],
      "name": "getSystemCount",
      "outputs": [
        {
          "internalType": "uint256",
          "name": "",
          "type": "uint256"
        }
      ],
      "payable": false,
      "stateMutability": "view",
      "type": "function"
    },
    {
      "constant": true,
      "inputs": [],
      "name": "getMyShipLocation",
      "outputs": [
        {
          "internalType": "uint256",
          "name": "",
          "type": "uint256"
        }
      ],
      "payable": false,
      "stateMutability": "view",
      "type": "function"
    },
    {
      "constant": true,
      "inputs": [],
      "name": "getMyShipId",
      "outputs": [
        {
          "internalType": "uint256",
          "name": "",
          "type": "uint256"
        }
      ],
      "payable": false,
      "stateMutability": "view",
      "type": "function"
    },
    {
      "constant": true,
      "inputs": [],
      "name": "getMyShip",
      "outputs": [
        {
          "internalType": "string",
          "name": "",
          "type": "string"
        },
        {
          "internalType": "uint256",
          "name": "",
          "type": "uint256"
        },
        {
          "internalType": "uint256",
          "name": "",
          "type": "uint256"
        },
        {
          "internalType": "uint8",
          "name": "",
          "type": "uint8"
        },
        {
          "internalType": "uint8",
          "name": "",
          "type": "uint8"
        },
        {
          "internalType": "uint8",
          "name": "",
          "type": "uint8"
        },
        {
          "internalType": "uint8",
          "name": "",
          "type": "uint8"
        }
      ],
      "payable": false,
      "stateMutability": "view",
      "type": "function"
    },
    {
      "constant": true,
      "inputs": [],
      "name": "getPlayerSystemData",
      "outputs": [
        {
          "internalType": "uint256",
          "name": "",
          "type": "uint256"
        },
        {
          "internalType": "string",
          "name": "",
          "type": "string"
        },
        {
          "internalType": "uint8",
          "name": "",
          "type": "uint8"
        },
        {
          "internalType": "uint256",
          "name": "",
          "type": "uint256"
        },
        {
          "internalType": "address",
          "name": "",
          "type": "address"
        },
        {
          "internalType": "uint256[12]",
          "name": "",
          "type": "uint256[12]"
        },
        {
          "internalType": "uint256[14]",
          "name": "",
          "type": "uint256[14]"
        },
        {
          "internalType": "uint256[30]",
          "name": "",
          "type": "uint256[30]"
        }
      ],
      "payable": false,
      "stateMutability": "view",
      "type": "function"
    },
    {
      "constant": true,
      "inputs": [
        {
          "internalType": "uint256",
          "name": "systemId",
          "type": "uint256"
        }
      ],
      "name": "getSystemName",
      "outputs": [
        {
          "internalType": "string",
          "name": "",
          "type": "string"
        }
      ],
      "payable": false,
      "stateMutability": "view",
      "type": "function"
    },
    {
      "constant": false,
      "inputs": [
        {
          "internalType": "string",
          "name": "name",
          "type": "string"
        }
      ],
      "name": "renameStar",
      "outputs": [],
      "payable": false,
      "stateMutability": "nonpayable",
      "type": "function"
    }
  ],
  "bytecode": "0x608060405234801561001057600080fd5b50615eb180620000216000396000f3fe608060405234801561001057600080fd5b50600436106102265760003560e01c80638b1ef2a91161012a578063bfcff120116100bd578063d6a503021161008c578063f0034e7011610071578063f0034e7014610de2578063f778278014610dff578063f9fa703214610eb357610226565b8063d6a5030214610d16578063dcdb7a9314610dbc57610226565b8063bfcff12014610c3a578063c9116b6914610ce0578063cc01956014610ce8578063d2f5bed514610d0e57610226565b8063a74c0906116100f9578063a74c090614610ad7578063a7f0b3de14610b84578063b3d2120714610b8c578063bdcecd3214610c3257610226565b80638b1ef2a9146109ca5780638b4b6d58146109e75780638ea31d5c14610a0d578063a25716c814610a2a57610226565b806334efcb8e116101bd5780636113e3451161018c578063728419fa11610171578063728419fa146108f85780637685ffc41461098a5780637df56b6c146109b057610226565b80636113e345146107a457806369ff62a8146107ca57610226565b806334efcb8e1461056f5780634025b22d1461067d57806348d50283146106ef57806348e2ad6d1461079c57610226565b806330a92b64116101f957806330a92b641461047857806332b394b91461048057806333542a161461052d57806334c4dc8a1461056757610226565b80630936e1f01461022b5780630f3db6ac146102e2578063106e054d14610306578063262b6750146103fb575b600080fd5b6102e06004803603606081101561024157600080fd5b81359160ff6020820135169181019060608101604082013564010000000081111561026b57600080fd5b82018360208201111561027d57600080fd5b8035906020019184600183028401116401000000008311171561029f57600080fd5b91908080601f016020809104026020016040519081016040528093929190818152602001838380828437600092019190915250929550610f59945050505050565b005b6102ea610f71565b604080516001600160a01b039092168252519081900360200190f35b6103236004803603602081101561031c57600080fd5b5035610f83565b6040805160ff85166020820152908190810184606080838360005b8381101561035657818101518382015260200161033e565b5050505090500183600460200280838360005b83811015610381578181015183820152602001610369565b50505050905001828103825286818151815260200191508051906020019080838360005b838110156103bd5781810151838201526020016103a5565b50505050905090810190601f1680156103ea5780820380516001836020036101000a031916815260200191505b509550505050505060405180910390f35b6104216004803603604081101561041157600080fd5b508035906020013560ff16610fb7565b6040805160ff8086166020808401919091528582169383019390935283166060820152608080825286519082015285519091829160a0830191880190808383600083156103bd5781810151838201526020016103a5565b6102e0610fde565b6102e06004803603604081101561049657600080fd5b813591908101906040810160208201356401000000008111156104b857600080fd5b8201836020820111156104ca57600080fd5b803590602001918460018302840111640100000000831117156104ec57600080fd5b91908080601f016020809104026020016040519081016040528093929190818152602001838380828437600092019190915250929550610fea945050505050565b6102e06004803603608081101561054357600080fd5b508035906020810135600190810b916040810135820b91606090910135900b611000565b6102ea61112b565b61058c6004803603602081101561058557600080fd5b5035611137565b604051808060200187815260200186600460200280838360005b838110156105be5781810151838201526020016105a6565b505050506001600160a01b0388169201918252506020018461010080838360005b838110156105f75781810151838201526020016105df565b5050505090500183151515158152602001828103825288818151815260200191508051906020019080838360005b8381101561063d578181015183820152602001610625565b50505050905090810190601f16801561066a5780820380516001836020036101000a031916815260200191505b5097505050505050505060405180910390f35b61069a6004803603602081101561069357600080fd5b5035611173565b6040805160208082018690529181018490526001600160a01b0383166060820152608080825286519082015285519091829160a0830191880190808383600083156103bd5781810151838201526020016103a5565b6102e06004803603604081101561070557600080fd5b8135919081019060408101602082013564010000000081111561072757600080fd5b82018360208201111561073957600080fd5b8035906020019184600183028401116401000000008311171561075b57600080fd5b91908080601f0160208091040260200160405190810160405280939291908181526020018383808284376000920191909152509295506112e1945050505050565b6102ea6112f3565b6102e0600480360360208110156107ba57600080fd5b50356001600160a01b03166112ff565b6107d2611392565b6040805189815260ff881691810191909152606081018690526001600160a01b03851660808201526020810160a082018561018080838360005b8381101561082457818101518382015260200161080c565b5050505090500184600e60200280838360005b8381101561084f578181015183820152602001610837565b5050505090500183601e60200280838360005b8381101561087a578181015183820152602001610862565b50505050905001828103825289818151815260200191508051906020019080838360005b838110156108b657818101518382015260200161089e565b50505050905090810190601f1680156108e35780820380516001836020036101000a031916815260200191505b50995050505050505050505060405180910390f35b6109156004803603602081101561090e57600080fd5b50356113e6565b6040805160208082528351818301528351919283929083019185019080838360005b8381101561094f578181015183820152602001610937565b50505050905090810190601f16801561097c5780820380516001836020036101000a031916815260200191505b509250505060405180910390f35b6102e0600480360360408110156109a057600080fd5b508035906020013560ff166113ff565b6109b8611494565b60408051918252519081900360200190f35b6102e0600480360360208110156109e057600080fd5b5035611a49565b6102e0600480360360208110156109fd57600080fd5b50356001600160a01b0316611ab9565b6102e060048036036020811015610a2357600080fd5b5035611b84565b6102e060048036036040811015610a4057600080fd5b81359190810190604081016020820135640100000000811115610a6257600080fd5b820183602082011115610a7457600080fd5b80359060200191846001830284011164010000000083111715610a9657600080fd5b91908080601f016020809104026020016040519081016040528093929190818152602001838380828437600092019190915250929550611b98945050505050565b6102e060048036036040811015610aed57600080fd5b81359190810190604081016020820135640100000000811115610b0f57600080fd5b820183602082011115610b2157600080fd5b80359060200191846001830284011164010000000083111715610b4357600080fd5b91908080601f016020809104026020016040519081016040528093929190818152602001838380828437600092019190915250929550611c5c945050505050565b6102e0611c6e565b6102e060048036036020811015610ba257600080fd5b810190602081018135640100000000811115610bbd57600080fd5b820183602082011115610bcf57600080fd5b80359060200191846001830284011164010000000083111715610bf157600080fd5b91908080601f016020809104026020016040519081016040528093929190818152602001838380828437600092019190915250929550611c78945050505050565b6109b8611c89565b6102e060048036036020811015610c5057600080fd5b810190602081018135640100000000811115610c6b57600080fd5b820183602082011115610c7d57600080fd5b80359060200191846001830284011164010000000083111715610c9f57600080fd5b91908080601f016020809104026020016040519081016040528093929190818152602001838380828437600092019190915250929550611c95945050505050565b6109b8611d55565b6102e060048036036020811015610cfe57600080fd5b50356001600160a01b0316611d67565b6109b8611ddf565b6102e060048036036020811015610d2c57600080fd5b810190602081018135640100000000811115610d4757600080fd5b820183602082011115610d5957600080fd5b80359060200191846001830284011164010000000083111715610d7b57600080fd5b91908080601f016020809104026020016040519081016040528093929190818152602001838380828437600092019190915250929550611deb945050505050565b6102e060048036036020811015610dd257600080fd5b50356001600160a01b0316611ea1565b61058c60048036036020811015610df857600080fd5b5035611f19565b610e07611f41565b60408051602080820189905291810187905260ff8087166060830152858116608083015284811660a0830152831660c082015260e08082528951908201528851909182916101008301918b019080838360005b83811015610e72578181015183820152602001610e5a565b50505050905090810190601f168015610e9f5780820380516001836020036101000a031916815260200191505b509850505050505050505060405180910390f35b6102e060048036036020811015610ec957600080fd5b810190602081018135640100000000811115610ee457600080fd5b820183602082011115610ef657600080fd5b80359060200191846001830284011164010000000083111715610f1857600080fd5b91908080601f016020809104026020016040519081016040528093929190818152602001838380828437600092019190915250929550611f6c945050505050565b610f6c600084848463ffffffff611f7d16565b505050565b6000610f7d6000611fab565b90505b90565b60606000610f8f615b82565b610f97615ba0565b610fa860008663ffffffff611fb916565b93509350935093509193509193565b606060008080610fce81878763ffffffff61214a16565b9299919850965090945092505050565b610fe86000612175565b565b610ffc6000838363ffffffff612e2f16565b5050565b604080517fee84909100000000000000000000000000000000000000000000000000000000815260006004820181905260248201879052600186810b810b604484015285810b810b606484015284810b900b6084830152915173__StarSystemLibrary_____________________9163ee8490919160a4808301926020929190829003018186803b15801561109457600080fd5b505af41580156110a8573d6000803e3d6000fd5b505050506040513d60208110156110be57600080fd5b50516040805133815260208101889052600187810b810b8284015286810b810b606083015285810b900b608082015260a0810183905290519192507f4fa2b9bdc22a6c89b2cad47964714ccbfc44eccb24616cc8247064745292a153919081900360c00190a15050505050565b6000610f7d6000612e43565b60606000611143615ba0565b600061114d615bbe565b600061115f818863ffffffff612e5116565b949c939b5091995097509550909350915050565b606060008060008073__StarSystemLibrary_____________________6385421f519091876040518363ffffffff1660e01b8152600401808381526020018281526020019250505060006040518083038186803b1580156111d357600080fd5b505af41580156111e7573d6000803e3d6000fd5b505050506040513d6000823e601f3d908101601f19168201604052608081101561121057600080fd5b810190808051604051939291908464010000000082111561123057600080fd5b90830190602082018581111561124557600080fd5b825164010000000081118282018810171561125f57600080fd5b82525081516020918201929091019080838360005b8381101561128c578181015183820152602001611274565b50505050905090810190601f1680156112b95780820380516001836020036101000a031916815260200191505b5060409081526020820151908201516060909201519498509650945091925050509193509193565b610ffc6000838363ffffffff612ec816565b6000610f7d6000612f5d565b604080517f838cfb980000000000000000000000000000000000000000000000000000000081526000600482018190526001600160a01b0384166024830152915173__StarSystemLibrary_____________________9263838cfb989260448082019391829003018186803b15801561137757600080fd5b505af415801561138b573d6000803e3d6000fd5b5050505050565b6000606060008060006113a3615bdd565b6113ab615bfc565b6113b3615c1b565b6113ce6113c06000612f6d565b60009063ffffffff612f7b16565b969f959e50939c50919a509850965094509092509050565b60606113f960008363ffffffff6131fb16565b92915050565b604080517f63c92fd50000000000000000000000000000000000000000000000000000000081526000600482018190526024820185905260ff84166044830152915173__StarSystemLibrary_____________________926363c92fd59260648082019391829003018186803b15801561147857600080fd5b505af415801561148c573d6000803e3d6000fd5b505050505050565b6040805160008054610100602082028401810190945260e083018181529193610f7d939285928492849190829085015b8282101561166757600084815260209081902060408051603d860290920180546002610100600183161581026000190190921604601f8101869004909502840161012090810190935283018481529293909284929091849184018282801561156d5780601f106115425761010080835404028352916020019161156d565b820191906000526020600020905b81548152906001019060200180831161155057829003601f168201915b5050509183525050600182015460ff166020820152600282015460408083019190915260038301546001600160a01b031660608301528051610180810191829052608090920191906004840190600c9082845b8154815260200190600101908083116115c0575050509183525050604080516101c0810191829052602090920191906010840190600e9082845b8154815260200190600101908083116115fa575050509183525050604080516103c081019182905260209092019190601e8481019182845b8154815260200190600101908083116116325750505050508152602001603c82015481525050815260200190600101906114c4565b505050908252506040805160208181018352600385015482528084019190915260048401546001600160a01b03168284015281516005850180548084028301850185529282018381526060909501949193909284929184919060009085015b8282101561177d57600084815260209081902060408051918501805460026001821615610100026000190190911604601f81018590048502840183018352938301848152929390928492909184918401828280156117655780601f1061173a57610100808354040283529160200191611765565b820191906000526020600020905b81548152906001019060200180831161174857829003601f168201915b505050505081525050815260200190600101906116c6565b5050509152505081526040805180820182526008840180546001600160a01b0316825260098501805484516020828102820181019096528181529585019593949293858401939092919060009084015b828210156118d45760008481526020908190206040805160038602909201805460026001821615610100026000190190911604601f8101859004909402830160e090810190925260c08301848152929390928492909184918401828280156118765780601f1061184b57610100808354040283529160200191611876565b820191906000526020600020905b81548152906001019060200180831161185957829003601f168201915b505050918352505060018281015460208084019190915260029093015460ff80821660408501526101008204811660608501526201000082048116608085015263010000009091041660a090920191909152918352920191016117cd565b5050509152505081526040805160208084019190915281518083018352600f850180546001600160a01b031682526010860180548551818602810186018752818152959096019592949193858101939060009084015b82821015611a3a57600084815260209081902060408051600486029092018054600260018216156101009081026000190190921604601f81018690049095028401810190925260e08301848152929390928492909184918401828280156119d25780601f106119a7576101008083540402835291602001916119d2565b820191906000526020600020905b8154815290600101906020018083116119b557829003601f168201915b50505091835250506001828101546020808401919091526002840154604084015260039093015460ff8082166060850152610100820481166080850152620100008204811660a085015263010000009091041660c0909201919091529183529201910161192a565b5050509152505090525061336c565b604080517f65d2521700000000000000000000000000000000000000000000000000000000815260006004820181905260248201849052915173__StarSystemLibrary_____________________926365d252179260448082019391829003018186803b15801561137757600080fd5b6012805473ffffffffffffffffffffffffffffffffffffffff19166001600160a01b038381169190911791829055604080517f46fd1fd000000000000000000000000000000000000000000000000000000000815260206004820152600c60248201527f4772656174204461656d6f6e00000000000000000000000000000000000000006044820152905192909116916346fd1fd09160648082019260009290919082900301818387803b158015611b7057600080fd5b505af115801561138b573d6000803e3d6000fd5b611b9560008263ffffffff61337116565b50565b600073__StarSystemLibrary_____________________63021606d0909184846040518463ffffffff1660e01b81526004018084815260200183815260200180602001828103825283818151815260200191508051906020019080838360005b83811015611c10578181015183820152602001611bf8565b50505050905090810190601f168015611c3d5780820380516001836020036101000a031916815260200191505b5094505050505060006040518083038186803b15801561147857600080fd5b610ffc6000838363ffffffff612f3616565b610fe86000613469565b611b9560008263ffffffff61384016565b6000610f7d6000612f6d565b611ca660008263ffffffff61390916565b611cb9600033606463ffffffff6139d816565b7fd67e890c0ed9583d50ff61ca26532cd8a40ca1e1aa8391a09039c76eddd79523816040518080602001828103825283818151815260200191508051906020019080838360005b83811015611d18578181015183820152602001611d00565b50505050905090810190601f168015611d455780820380516001836020036101000a031916815260200191505b509250505060405180910390a150565b6000610f7d813363ffffffff613a6916565b604080517fbec988530000000000000000000000000000000000000000000000000000000081526000600482018190526001600160a01b0384166024830152915173__StarSystemLibrary_____________________9263bec988539260448082019391829003018186803b15801561137757600080fd5b6000610f7d6000613b0a565b7f668e3aa0235fbf106fed3635cd74d62d7eda5720c76398adb1cc3920c2b4c457338260405180836001600160a01b03166001600160a01b0316815260200180602001828103825283818151815260200191508051906020019080838360005b83811015611e63578181015183820152602001611e4b565b50505050905090810190601f168015611e905780820380516001836020036101000a031916815260200191505b50935050505060405180910390a150565b604080517f787ad5c10000000000000000000000000000000000000000000000000000000081526000600482018190526001600160a01b0384166024830152915173__StarSystemLibrary_____________________9263787ad5c19260448082019391829003018186803b15801561137757600080fd5b60606000611f25615ba0565b6000611f2f615bbe565b600061115f818863ffffffff613b1816565b6060600080600080600080611f566000613b8e565b959d949c50929a50909850965094509092509050565b611b9560008263ffffffff613bbc16565b611f92600e850184848463ffffffff613bcf16565b611fa5600f85018463ffffffff613bf716565b50505050565b60006113f982600801613c36565b60606000611fc5615b82565b611fcd615ba0565b604080517f4b4e7c2700000000000000000000000000000000000000000000000000000000815260088801600482015260248101879052905173__PlanetLibrary_________________________91634b4e7c27916044808301926000929190829003018186803b15801561204157600080fd5b505af4158015612055573d6000803e3d6000fd5b505050506040513d6000823e601f3d908101601f1916820160405261012081101561207f57600080fd5b810190808051604051939291908464010000000082111561209f57600080fd5b9083019060208201858111156120b457600080fd5b82516401000000008111828201881017156120ce57600080fd5b82525081516020918201929091019080838360005b838110156120fb5781810151838201526020016120e3565b50505050905090810190601f1680156121285780820380516001836020036101000a031916815260200191505b5060409081526020820151949b949a508101985060a001965091945050505050565b606060008080612164600e8801878763ffffffff613c4316565b935093509350935093509350935093565b6001600081815260028301602052604090205460ff16156121dd576040805162461bcd60e51b815260206004820152601c60248201527f4d757374206e657665722068617665206265656e207669736974656400000000604482015290519081900360640190fd5b60008181526002830160205260409020805460ff191660011790558154339083908390811061220857fe5b90600052602060002090603d020160030160006101000a8154816001600160a01b0302191690836001600160a01b03160217905550600482600001828154811061224e57fe5b600091825260208220603d9190910201600101805460ff191660ff9390931692909217909155805b604080517f8aebd79900000000000000000000000000000000000000000000000000000000815260ff83166004820152905173__PresetLibrary_________________________91638aebd799916024808301926020929190829003018186803b1580156122e357600080fd5b505af41580156122f7573d6000803e3d6000fd5b505050506040513d602081101561230d57600080fd5b5051156126f45761268673__PresetLibrary_________________________63618b220f836040518263ffffffff1660e01b8152600401808260ff1660ff16815260200191505060006040518083038186803b15801561236c57600080fd5b505af4158015612380573d6000803e3d6000fd5b505050506040513d6000823e601f3d908101601f1916820160405260208110156123a957600080fd5b81019080805160405193929190846401000000008211156123c957600080fd5b9083019060208201858111156123de57600080fd5b82516401000000008111828201881017156123f857600080fd5b82525081516020918201929091019080838360005b8381101561242557818101518382015260200161240d565b50505050905090810190601f1680156124525780820380516001836020036101000a031916815260200191505b506040818152631f48467d60e31b825260ff881660048301525189945073__PresetLibrary_________________________935063fa4233e892506024808301926020929190829003018186803b1580156124ac57600080fd5b505af41580156124c0573d6000803e3d6000fd5b505050506040513d60208110156124d657600080fd5b5051604080516345dad6cb60e11b815260ff87166004820152905173__PresetLibrary_________________________91638bb5ad96916024808301926020929190829003018186803b15801561252c57600080fd5b505af4158015612540573d6000803e3d6000fd5b505050506040513d602081101561255657600080fd5b5051604080517f070fd8a000000000000000000000000000000000000000000000000000000000815260ff88166004820152905173__PresetLibrary_________________________9163070fd8a0916024808301926020929190829003018186803b1580156125c557600080fd5b505af41580156125d9573d6000803e3d6000fd5b505050506040513d60208110156125ef57600080fd5b50516040805163b24f6b1b60e01b815260ff89166004820152905173__PresetLibrary_________________________9163b24f6b1b916024808301926020929190829003018186803b15801561264557600080fd5b505af4158015612659573d6000803e3d6000fd5b505050506040513d602081101561266f57600080fd5b505160088b0195949392919063ffffffff613d8d16565b84600001848154811061269557fe5b90600052602060002090603d020160100183600e81106126b157fe5b015583548490849081106126c157fe5b90600052602060002090603d020160100182600e81106126dd57fe5b015491506126f4600885018363ffffffff613efc16565b604080517f8497f27c00000000000000000000000000000000000000000000000000000000815260ff83166004820152905173__PresetLibrary_________________________91638497f27c916024808301926020929190829003018186803b15801561276157600080fd5b505af4158015612775573d6000803e3d6000fd5b505050506040513d602081101561278b57600080fd5b505115612b0157612b018273__PresetLibrary_________________________63d43eb1f2846040518263ffffffff1660e01b8152600401808260ff1660ff16815260200191505060206040518083038186803b1580156127eb57600080fd5b505af41580156127ff573d6000803e3d6000fd5b505050506040513d602081101561281557600080fd5b5051604080517f618b220f00000000000000000000000000000000000000000000000000000000815260ff86166004820152905173__PresetLibrary_________________________9163618b220f916024808301926000929190829003018186803b15801561288457600080fd5b505af4158015612898573d6000803e3d6000fd5b505050506040513d6000823e601f3d908101601f1916820160405260208110156128c157600080fd5b81019080805160405193929190846401000000008211156128e157600080fd5b9083019060208201858111156128f657600080fd5b825164010000000081118282018810171561291057600080fd5b82525081516020918201929091019080838360005b8381101561293d578181015183820152602001612925565b50505050905090810190601f16801561296a5780820380516001836020036101000a031916815260200191505b506040818152631f48467d60e31b825260ff8a1660048301525173__PresetLibrary_________________________945063fa4233e8935060248083019350602092829003018186803b1580156129c057600080fd5b505af41580156129d4573d6000803e3d6000fd5b505050506040513d60208110156129ea57600080fd5b5051604080516345dad6cb60e11b815260ff88166004820152905173__PresetLibrary_________________________91638bb5ad96916024808301926020929190829003018186803b158015612a4057600080fd5b505af4158015612a54573d6000803e3d6000fd5b505050506040513d6020811015612a6a57600080fd5b50516040805163b24f6b1b60e01b815260ff89166004820152905173__PresetLibrary_________________________9163b24f6b1b916024808301926020929190829003018186803b158015612ac057600080fd5b505af4158015612ad4573d6000803e3d6000fd5b505050506040513d6020811015612aea57600080fd5b5051600e8b0195949392919063ffffffff61405d16565b604080517fed7af49b00000000000000000000000000000000000000000000000000000000815260ff83166004820152905173__PresetLibrary_________________________9163ed7af49b916024808301926020929190829003018186803b158015612b6e57600080fd5b505af4158015612b82573d6000803e3d6000fd5b505050506040513d6020811015612b9857600080fd5b505115612d8557612d728273__PresetLibrary_________________________63618b220f846040518263ffffffff1660e01b8152600401808260ff1660ff16815260200191505060006040518083038186803b158015612bf857600080fd5b505af4158015612c0c573d6000803e3d6000fd5b505050506040513d6000823e601f3d908101601f191682016040526020811015612c3557600080fd5b8101908080516040519392919084640100000000821115612c5557600080fd5b908301906020820185811115612c6a57600080fd5b8251640100000000811182820188101715612c8457600080fd5b82525081516020918201929091019080838360005b83811015612cb1578181015183820152602001612c99565b50505050905090810190601f168015612cde5780820380516001836020036101000a031916815260200191505b506040818152631f48467d60e31b825260ff891660048301525173__PresetLibrary_________________________945063fa4233e8935060248083019350602092829003018186803b158015612d3457600080fd5b505af4158015612d48573d6000803e3d6000fd5b505050506040513d6020811015612d5e57600080fd5b50516008880192919063ffffffff61415f16565b612d85600885018363ffffffff61420a16565b604080517fd7ca989200000000000000000000000000000000000000000000000000000000815260ff60019093019283166004820152905173__PresetLibrary_________________________9163d7ca9892916024808301926020929190829003018186803b158015612df857600080fd5b505af4158015612e0c573d6000803e3d6000fd5b505050506040513d6020811015612e2257600080fd5b5051156122765750505050565b610f6c60088401838363ffffffff61462716565b60006113f982600f01613c36565b60606000612e5d615ba0565b6000612e67615bbe565b600060606000612e75615ba0565b600080612e8b60088e018d63ffffffff6146a516565b94509450945094509450612e9d615bbe565b612eb0600e8f018e63ffffffff61491e16565b959e949d50929b509099509297509195509350505050565b612ed28383614999565b612f23576040805162461bcd60e51b815260206004820152601260248201527f4d75737420626520696e2073797374656d2e0000000000000000000000000000604482015290519081900360640190fd5b612f36600884018363ffffffff613efc16565b612f4a60088401838363ffffffff614a1816565b610f6c600f84018363ffffffff613bf716565b600401546001600160a01b031690565b60006113f982600f01614aa9565b600060606000806000612f8c615bdd565b612f94615bfc565b612f9c615c1b565b60008981526001808c0160205260409091205460ff16151514613006576040805162461bcd60e51b815260206004820152601660248201527f536563746f7220646f6573206e6f742065786973742e00000000000000000000604482015290519081900360640190fd5b61300e615c3a565b8a6000018a8154811061301d57fe5b600091825260209182902060408051603d9390930290910180546002610100600183161581026000190190921604601f810186900490950284016101209081019093528301848152929390928492909184918401828280156130c05780601f10613095576101008083540402835291602001916130c0565b820191906000526020600020905b8154815290600101906020018083116130a357829003601f168201915b5050509183525050600182015460ff166020820152600282015460408083019190915260038301546001600160a01b031660608301528051610180810191829052608090920191906004840190600c9082845b815481526020019060010190808311613113575050509183525050604080516101c0810191829052602090920191906010840190600e9082845b81548152602001906001019080831161314d575050509183525050604080516103c081019182905260209092019190601e8481019182845b8154815260200190600101908083116131855750505050508152602001603c82015481525050905089816000015182602001518360400151846060015185608001518660a001518760c0015186965082925081915080905098509850985098509850985098509850509295985092959890939650565b6000818152600180840160205260409091205460609160ff90911615151461326a576040805162461bcd60e51b815260206004820152601660248201527f536563746f7220646f6573206e6f742065786973742e00000000000000000000604482015290519081900360640190fd5b600082815260028401602052604090205460ff16156133315782600001828154811061329257fe5b6000918252602091829020603d90910201805460408051601f60026000196101006001871615020190941693909304928301859004850281018501909152818152928301828280156133255780601f106132fa57610100808354040283529160200191613325565b820191906000526020600020905b81548152906001019060200180831161330857829003601f168201915b505050505090506113f9565b5060408051808201909152600f81527f556e6578706c6f72656420537461720000000000000000000000000000000000602082015292915050565b515190565b600061337c83612f6d565b116133ce576040805162461bcd60e51b815260206004820152601e60248201527f53686970206d75737420616c7265616479206265206c61756e636865642e0000604482015290519081900360640190fd5b6133d88282614ae5565b15156001146134185760405162461bcd60e51b815260040180806020018281038252602e815260200180615e2b602e913960400191505060405180910390fd5b600081815260028301602052604090205460ff1661344357613443828261343e85612f6d565b614ba8565b613456600f83018263ffffffff6150cc16565b610ffc828261346485613b0a565b615140565b8054156134bd576040805162461bcd60e51b815260206004820152601760248201527f612067616c61787920616c726561647920657869737473000000000000000000604482015290519081900360640190fd5b60006134c8826151e5565b905080156135075760405162461bcd60e51b8152600401808060200182810382526021815260200180615e0a6021913960400191505060405180910390fd5b6040518060400160405280600a81526020017f4f7468657276657273650000000000000000000000000000000000000000000081525082600001828154811061354c57fe5b90600052602060002090603d02016000019080519060200190613570929190615c9d565b5060408051808201909152600781527f4e6f77686572650000000000000000000000000000000000000000000000000060208201526000906135c1906008850190848480808063ffffffff613d8d16565b90508015613616576040805162461bcd60e51b815260206004820152601b60248201527f4661696c656420746f206275726e20706c616e6574207a65726f2e0000000000604482015290519081900360640190fd5b60006136636040518060400160405280600a81526020017f47686f737420536869700000000000000000000000000000000000000000000081525085600f0161537990919063ffffffff16565b905080156136b8576040805162461bcd60e51b815260206004820152601f60248201527f4661696c656420746f206275726e2073706163652073686970207a65726f2e00604482015290519081900360640190fd5b60006136c3856151e5565b90508060011461371a576040805162461bcd60e51b815260206004820181905260248201527f536f6c2053797374656d2073686f756c642068617665206265656e206f6e652e604482015290519081900360640190fd5b6040518060400160405280600381526020017f536f6c000000000000000000000000000000000000000000000000000000000081525085600001828154811061375f57fe5b90600052602060002090603d02016000019080519060200190613783929190615c9d565b5060005b85600001828154811061379657fe5b50600052600c811015613813578560000182815481106137b257fe5b90600052602060002090603d020160040181600c81106137ce57fe5b015461380b576137dd866151e5565b8660000183815481106137ec57fe5b90600052602060002090603d020160040182600c811061380857fe5b01555b600101613787565b50808560000160008154811061382557fe5b6000918252602082206004603d909202010101555050505050565b600061384b83612f6d565b9050336001600160a01b031683600001828154811061386657fe5b600091825260209091206003603d9092020101546001600160a01b0316146138d5576040805162461bcd60e51b815260206004820152601a60248201527f4d757374206861766520646973636f766572656420737461722e000000000000604482015290519081900360640190fd5b818360000182815481106138e557fe5b90600052602060002090603d02016000019080519060200190611fa5929190615c9d565b61391282613b0a565b15613964576040805162461bcd60e51b815260206004820152601160248201527f53686970206d757374206265206e65772e000000000000000000000000000000604482015290519081900360640190fd5b6001600090815260028301602052604090205460ff166139b55760405162461bcd60e51b8152600401808060200182810382526024815260200180615dbd6024913960400191505060405180910390fd5b60006139ca600f84018363ffffffff61537916565b9050610f6c83600183615140565b600480840154604080517f3ff3226d0000000000000000000000000000000000000000000000000000000081526001600160a01b03868116948201949094526024810185905290519290911691633ff3226d9160448082019260009290919082900301818387803b158015613a4c57600080fd5b505af1158015613a60573d6000803e3d6000fd5b50505050505050565b600480830154604080517f70a082310000000000000000000000000000000000000000000000000000000081526001600160a01b03858116948201949094529051600093909216916370a0823191602480820192602092909190829003018186803b158015613ad757600080fd5b505afa158015613aeb573d6000803e3d6000fd5b505050506040513d6020811015613b0157600080fd5b50519392505050565b60006113f982600f0161550a565b60606000613b24615ba0565b6000613b2e615bbe565b600080613b3a89612f6d565b90506000896000018281548110613b4d57fe5b90600052602060002090603d020160100189600e8110613b6957fe5b01549050613b778a82612e51565b949f939e50919c509a509850909650945050505050565b6060600080600080600080613ba588600f01615521565b959e949d50929b5090995097509550909350915050565b610ffc600f83018263ffffffff61570416565b60008381526020858152604080832060ff861684528252909120825161138b92840190615c9d565b33600090815260028301602052604090205460018301805483919083908110613c1c57fe5b906000526020600020906004020160020181905550505050565b546001600160a01b031690565b60008281526020848152604080832060ff80861685529252822060010154606092918291829116613cbb576040805162461bcd60e51b815260206004820152600e60248201527f546861742773206e6f206d6f6f6e000000000000000000000000000000000000604482015290519081900360640190fd5b60008681526020888152604080832060ff8981168552908352928190206001808201548254845160026101009483161585026000190190921691909104601f810187900487028201870190955284815292958181169592820481169462010000909204169291869190830182828015613d755780601f10613d4a57610100808354040283529160200191613d75565b820191906000526020600020905b815481529060010190602001808311613d5857829003601f168201915b50505050509350935093509350935093509350935093565b6040805160c081018252878152602080820188905260ff808816938301939093528583166060830152848316608083015291831660a082015260018981018054808301808355600092835285832085518051949788979395939460030290920192613dfb9284920190615c9d565b5060208201516001820155604080830151600290920180546060850151608086015160a09096015160ff1990921660ff9586161761ff001916610100918616919091021762ff0000191662010000958516959095029490941763ff0000001916630100000093909416929092029290921790558b5481517f390dab58000000000000000000000000000000000000000000000000000000008152939092036004840181905290519093506001600160a01b039091169163390dab5891602480830192600092919082900301818387803b158015613ed757600080fd5b505af1158015613eeb573d6000803e3d6000fd5b50929b9a5050505050505050505050565b8154604080516331a9108f60e11b81526004810184905290518492849230926001600160a01b0390921691636352211e91602480820192602092909190829003018186803b158015613f4d57600080fd5b505afa158015613f61573d6000803e3d6000fd5b505050506040513d6020811015613f7757600080fd5b50516001600160a01b031614613fd4576040805162461bcd60e51b815260206004820152601960248201527f4d75737420626520756e636c61696d656420706c616e65742e00000000000000604482015290519081900360640190fd5b8354604080517f2b4dc69b0000000000000000000000000000000000000000000000000000000081523360048201526024810186905290516001600160a01b0390921691632b4dc69b9160448082019260009290919082900301818387803b15801561403f57600080fd5b505af1158015614053573d6000803e3d6000fd5b5050505050505050565b600860ff8616106140b5576040805162461bcd60e51b815260206004820152601160248201527f6d6f6f6e206f7574206f662072616e6765000000000000000000000000000000604482015290519081900360640190fd5b6040805160808101825285815260ff80861660208084019190915285821683850152848216606084015260008a81528b8252848120928a168152918152929020815180519293919261410a9284920190615c9d565b50602082015160019091018054604084015160609094015160ff908116620100000262ff0000199582166101000261ff00199290951660ff199093169290921716929092179290921617905550505050505050565b838361416b828261574d565b156141bd576040805162461bcd60e51b815260206004820152601760248201527f53746174696f6e20616c7265616479206578697374732e000000000000000000604482015290519081900360640190fd5b6000858152600287016020908152604090912085516141de92870190615c9d565b50505060009283526002939093016020525060409020600101805460ff191660ff909216919091179055565b8181614216828261574d565b614267576040805162461bcd60e51b815260206004820152601360248201527f53746174696f6e206d7573742065786973742e00000000000000000000000000604482015290519081900360640190fd5b8383614273828261577a565b156142c5576040805162461bcd60e51b815260206004820152601460248201527f506f7274206d757374206e6f742065786973742e000000000000000000000000604482015290519081900360640190fd5b60008060008860010188815481106142d957fe5b6000918252602090912060039091020160020154610100900460ff1661430d57506101f491506106d51990506105dc6145ac565b88600101888154811061431c57fe5b600091825260209091206002600390920201015460ff610100909104166001141561435657506103e891506107cf1990506103e7196145ac565b88600101888154811061436557fe5b60009182526020909120600260039092020181015460ff61010090910416141561439d57506103e71991506103e890506107d06145ac565b8860010188815481106143ac57fe5b6000918252602090912060039182020160020154610100900460ff1614156143e257506102ee91506107d090506103e7196145ac565b8860010188815481106143f157fe5b906000526020600020906003020160020160019054906101000a900460ff1660ff166004141561442f57506101f491506103e71990506103e86145ac565b88600101888154811061443e57fe5b906000526020600020906003020160020160019054906101000a900460ff1660ff166005141561447c57506101f31991506107d090506101f46145ac565b88600101888154811061448b57fe5b906000526020600020906003020160020160019054906101000a900460ff1660ff16600614156144c757506101f31991506107d09050816145ac565b8860010188815481106144d657fe5b906000526020600020906003020160020160019054906101000a900460ff1660ff166007141561451557506107d091506101f31990506107cf196145ac565b88600101888154811061452457fe5b906000526020600020906003020160020160019054906101000a900460ff1660ff166008141561456257506101f31991506105dc90506101f46145ac565b88600101888154811061457157fe5b906000526020600020906003020160020160019054906101000a900460ff1660ff16600914156145ac57506105db1991506103e71990506107d05b60009788526004909801602052604090962080546001808301805460028501805461ffff1997850b61ffff9081166201000081810263ffff000019998a16178b169091179098559c850b8d168088029387169390931788169092179092559a90910b9098169182029816979097171690951790935550505050565b8282614633828261574d565b614684576040805162461bcd60e51b815260206004820152601360248201527f53746174696f6e206d7573742065786973742e00000000000000000000000000604482015290519081900360640190fd5b60008481526002860160209081526040909120845161148c92860190615c9d565b606060006146b1615ba0565b8454604080516331a9108f60e11b8152600481018790529051600092839283926001600160a01b0390921691636352211e91602480820192602092909190829003018186803b15801561470357600080fd5b505afa158015614717573d6000803e3d6000fd5b505050506040513d602081101561472d57600080fd5b505190506001600160a01b038116301415614746575060005b61474e615ba0565b60405180608001604052808a6001018a8154811061476857fe5b60009182526020918290206002600390920201015460ff16825260018c01805492909101918b90811061479757fe5b906000526020600020906003020160020160019054906101000a900460ff1660ff1660ff1681526020018a6001018a815481106147d057fe5b906000526020600020906003020160020160029054906101000a900460ff1660ff1660ff1681526020018a6001018a8154811061480957fe5b60009182526020909120600390910201600201546301000000900460ff16905260018a018054919250908990811061483d57fe5b906000526020600020906003020160000189600101898154811061485d57fe5b906000526020600020906003020160010154828461487b8d8d61574d565b8454604080516020601f600260001961010060018816150201909516949094049384018190048102820181019092528281529187918301828280156149015780601f106148d657610100808354040283529160200191614901565b820191906000526020600020905b8154815290600101906020018083116148e457829003601f168201915b505050505094509650965096509650965050509295509295909350565b614926615bbe565b61492e615bbe565b60005b600860ff8216101561499157614948858583615800565b1561496d576001828260ff166008811061495e57fe5b91151560209092020152614989565b6000828260ff166008811061497e57fe5b911515602090920201525b600101614931565b509392505050565b6000806149a584612f6d565b905060005b8460000182815481106149b957fe5b50600052600e811015614a0d57838560000183815481106149d657fe5b90600052602060002090603d020160100182600e81106149f257fe5b01541415614a05576001925050506113f9565b6001016149aa565b506000949350505050565b8282614a248282615837565b614a75576040805162461bcd60e51b815260206004820152601460248201527f4d75737420626520796f757220706c616e65742e000000000000000000000000604482015290519081900360640190fd5b82856001018581548110614a8557fe5b9060005260206000209060030201600001908051906020019061148c929190615c9d565b33600090815260028201602052604081205460018301805482908110614acb57fe5b906000526020600020906004020160010154915050919050565b600081614b235760405162461bcd60e51b8152600401808060200182810382526029815260200180615de16029913960400191505060405180910390fd5b6000614b2e84612f6d565b90506000846000018281548110614b4157fe5b506000908152600c91505b81811015614b9c5784866000018481548110614b6457fe5b90600052602060002090603d020160040182600c8110614b8057fe5b01541415614b9457600193505050506113f9565b600101614b4c565b50600095945050505050565b60018211614be75760405162461bcd60e51b8152600401808060200182810382526024815260200180615e596024913960400191505060405180910390fd5b6000828152600180850160205260409091205460ff16151514614c51576040805162461bcd60e51b815260206004820152601a60248201527f537461722053797374656d20446f6573204e6f74204578697374000000000000604482015290519081900360640190fd5b600082815260028401602052604090205460ff1615614cb7576040805162461bcd60e51b815260206004820152601b60248201527f537461722053797374656d20416c726561647920566973697465640000000000604482015290519081900360640190fd5b6000836000018381548110614cc857fe5b90600052602060002090603d02019050614ce0615c3a565b846000018381548110614cef57fe5b600091825260209182902060408051603d9390930290910180546002610100600183161581026000190190921604601f81018690049095028401610120908101909352830184815292939092849290918491840182828015614d925780601f10614d6757610100808354040283529160200191614d92565b820191906000526020600020905b815481529060010190602001808311614d7557829003601f168201915b5050509183525050600182015460ff166020820152600282015460408083019190915260038301546001600160a01b031660608301528051610180810191829052608090920191906004840190600c9082845b815481526020019060010190808311614de5575050509183525050604080516101c0810191829052602090920191906010840190600e9082845b815481526020019060010190808311614e1f575050509183525050604080516103c081019182905260209092019190601e8481019182845b815481526020019060010190808311614e575750505050508152602001603c82015481525050905033856000018581548110614e8f57fe5b600091825260208083206003603d90930201820180546001600160a01b039590951673ffffffffffffffffffffffffffffffffffffffff1990951694909417909355604080519384019052870154825290600c908290614eee906158ca565b90506006816001878101805460ff1916939092060160ff1691909117905560005b8260ff168160ff161015615041578785608001518260ff16600c8110614f3157fe5b60200201511415614f82576000600860ff83168401061180614f56575060028460ff16105b15614f7d578686600401614f708360ff168660ff16615911565b600c8110614f7a57fe5b01555b615039565b600360ff8216830106158015614fae575084608001518160ff16600c8110614fa657fe5b602002015115155b15614ff65784608001518160ff16600c8110614fc657fe5b602002015186600401614fdf8360ff168660ff16615911565b600c8110614fe957fe5b0155600190930192615039565b600660ff8216830106615039576000888260ff1684038161501357fe5b069050808760040161502b8460ff168760ff16615911565b600c811061503557fe5b0155505b600101614f0f565b5060005b600c8160ff16101561509c57856004018160ff16600c811061506357fe5b015461509457600260ff82168301066150945761507f896151e5565b866004018260ff16600c811061509157fe5b01555b600101615045565b506150a8888683615929565b5050506000938452505050600290910160205260409020805460ff19166001179055565b33600090815260028301602052604090205460018301805483929081106150ef57fe5b600091825260208083206001600490930201820193909355338252600285019092526040812054918401805491929091811061512757fe5b9060005260206000209060040201600201819055505050565b8083600001838154811061515057fe5b90600052602060002090603d0201601e0184600001848154811061517057fe5b90600052602060002090603d0201603c0154601e811061518c57fe5b01558254601e9084908490811061519f57fe5b90600052602060002090603d0201603c0154600101816151bb57fe5b068360000183815481106151cb57fe5b90600052602060002090603d0201603c0181905550505050565b60006151ef615bdd565b6151f7615bfc565b6151ff615c1b565b6040805161014081018252600461010082019081527f537461720000000000000000000000000000000000000000000000000000000061012083015281526001602080830182905263ffffffff4216938301939093526000606083018190526080830187905260a0830186905260c0830185905260e083018190528854808301808b558a8352858320855180519497959692959294603d909402909101926152aa9284920190615c9d565b50602082015160018201805460ff191660ff90921691909117905560408201516002820155606082015160038201805473ffffffffffffffffffffffffffffffffffffffff19166001600160a01b039092169190911790556080820151615317906004830190600c615d1b565b5060a082015161532d906010830190600e615d48565b5060c082015161534390601e8084019190615d75565b5060e09190910151603c90910155036000818152600197880160205260409020805460ff19169097179096555093949350505050565b6040805160e08101825282815260016020808301829052600393830193909352600560608301526080820181905260a0820181905260c0820181905284810180548083018083556000928352858320855180519497889793959394600402909201926153e89284920190615c9d565b506020828101516001830155604080840151600280850191909155606085015160039094018054608087015160a088015160c09098015160ff1990921660ff9788161761ff001916610100918816919091021762ff0000191662010000978716979097029690961763ff00000019166301000000959096169490940294909417909255336000818152938a019091528183209490930393849055875481517fe667130400000000000000000000000000000000000000000000000000000000815260048101869052602481019490945290519394506001600160a01b03169263e667130492604480820193929182900301818387803b1580156154ea57600080fd5b505af11580156154fe573d6000803e3d6000fd5b50929695505050505050565b336000908152600282016020526040902054919050565b33600090815260028201602052604081205460018301805460609392839283928392839283928290811061555157fe5b906000526020600020906004020160000189600101828154811061557157fe5b9060005260206000209060040201600101548a600101838154811061559257fe5b9060005260206000209060040201600201548b60010184815481106155b357fe5b906000526020600020906004020160030160009054906101000a900460ff168c60010185815481106155e157fe5b906000526020600020906004020160030160019054906101000a900460ff168d600101868154811061560f57fe5b906000526020600020906004020160030160029054906101000a900460ff168e600101878154811061563d57fe5b6000918252602091829020600491909102016003015487546040805160026101006001851615026000190190931692909204601f8101859004850283018501909152808252630100000090920460ff1692909189918301828280156156e35780601f106156b8576101008083540402835291602001916156e3565b820191906000526020600020905b8154815290600101906020018083116156c657829003601f168201915b50505050509650975097509750975097509750975050919395979092949650565b3360009081526002830160205260409020546001830180548391908390811061572957fe5b90600052602060002090600402016000019080519060200190611fa5929190615c9d565b600081815260028301602052604081206001015460ff1615615771575060016113f9565b50600092915050565b6000818152600483016020526040812054620100009004600190810b900b156157a5575060016113f9565b60008281526004840160205260409020600190810154620100009004810b900b156157d2575060016113f9565b6000828152600484016020526040902060020154620100009004600190810b900b15615771575060016113f9565b60008281526020848152604080832060ff80861685529252822060010154161561582c57506001615830565b5060005b9392505050565b8154604080516331a9108f60e11b815260048101849052905160009233926001600160a01b0390911691636352211e91602480820192602092909190829003018186803b15801561588757600080fd5b505afa15801561589b573d6000803e3d6000fd5b505050506040513d60208110156158b157600080fd5b50516001600160a01b03161415615771575060016113f9565b805160010190819052604080516020808201939093523360601b81830152436000190140605480830191909152825180830390910181526074909101909152805191012090565b6000816002810484018161592157fe5b069392505050565b600e60005b8160ff168160ff16101561138b57600184015460029060ff160460040160ff16600e8260020160ff1685028161596057fe5b061015615a1a57600061599561597587612f6d565b600888019060ff808616600b87019091168802038563ffffffff615a2216565b905080856010018360ff16600e81106159aa57fe5b015560005b6159b7615aef565b60ff168160ff161015615a1757600460ff84160460030160ff16601982850160020160ff168702816159e557fe5b061015615a0f57615a0f600e8801838360ff808216600783019091168a020363ffffffff615af416565b6001016159af565b50505b60010161592e565b6000808260020260140160ff168481615a3757fe5b0660010190506000600a60328681615a4b57fe5b0481615a5357fe5b069050600a60648604819006906103e8870406600260ff821611615a775781615a7a565b60005b915060006001870160ff1660966103e88a040660ff0360ff1681615a9a57fe5b049050615ae18a6040518060400160405280601181526020017f556e6578706c6f72656420506c616e65740000000000000000000000000000008152508b88888887613d8d565b9a9950505050505050505050565b600890565b600082600202601e0360ff168281615b0857fe5b0660010190506000600a60328481615b1c57fe5b0481615b2457fe5b069050600060326107d585040685601e0260ff0360ff16039050613a608787876040518060400160405280600481526020017f4d6f6f6e0000000000000000000000000000000000000000000000000000000081525087878761405d565b60405180606001604052806003906020820280388339509192915050565b60405180608001604052806004906020820280388339509192915050565b6040518061010001604052806008906020820280388339509192915050565b604051806101800160405280600c906020820280388339509192915050565b604051806101c00160405280600e906020820280388339509192915050565b604051806103c00160405280601e906020820280388339509192915050565b60405180610100016040528060608152602001600060ff1681526020016000815260200160006001600160a01b03168152602001615c76615bdd565b8152602001615c83615bfc565b8152602001615c90615c1b565b8152602001600081525090565b828054600181600116156101000203166002900490600052602060002090601f016020900481019282601f10615cde57805160ff1916838001178555615d0b565b82800160010185558215615d0b579182015b82811115615d0b578251825591602001919060010190615cf0565b50615d17929150615da2565b5090565b82600c8101928215615d0b5791602002820182811115615d0b578251825591602001919060010190615cf0565b82600e8101928215615d0b5791602002820182811115615d0b578251825591602001919060010190615cf0565b82601e8101928215615d0b5791602002820182811115615d0b578251825591602001919060010190615cf0565b610f8091905b80821115615d175760008155600101615da856fe596f75206d757374206669727374206d616b652074686520736f6c61722073797374656d596f752063616e206e6f742074726176656c206261636b20746f20746865204f7468657276657273654f7468657276657273652073686f756c642068617665206265656e207a65726f2e596f752063616e206f6e6c79206d6f766520746f206e65696768626f72696e6720737461722073797374656d732e506f70756c6174652073686f756c64206e6f742072756e206f6e2073797374656d20312ea265627a7a723158207bbe7ab2f77668b8970648ea07f1151e1d4a54794758d561e9597fcc9544ec5d64736f6c63430005100032",
  "source": "pragma solidity >=0.5.0 <0.6.0;\n\nimport \"./StarSystems/StarSystemLibrary.sol\";\nimport \"./StarSystems/Avatar/AvatarControls.sol\";\n\n//todo: should 'requires' be in this contact?\n\ncontract Orbiter8 {\n    using StarSystemLibrary for StarSystemLibrary.Galaxy;\n    using StarSystemLibrary for StarSystemLibrary.StarSystem;\n    StarSystemLibrary.Galaxy galaxy;\n\n    AvatarControls private avatarControls;\n\n\n    event ChatLog(address _sender, string _message);\n    function sendChat(string memory message) public {\n        emit ChatLog(msg.sender, message);\n    }\n\n    /** connection to tokens contract for tracking planets */\n    function setPlanetTokenizer(address tokenAddress) public {\n        galaxy.setPlanetTokenizer(tokenAddress);\n    }\n    function getPlanetTokenizer() public view returns (address) {\n        return galaxy.getPlanetTokenizer();\n    }\n\n    /** connection to tokens contract for tracking ships */\n    function setShipTokenizer(address tokenAddress) public {\n        galaxy.setShipTokenizer(tokenAddress);\n    }\n    function getShipTokenizer() public view returns (address) {\n        return galaxy.getShipTokenizer();\n    }\n\n\n    /** connection to tokens contract for tracking credits */\n    function setCreditTokenizer(address tokenAddress) public {\n        galaxy.setCreditTokenizer(tokenAddress);\n    }\n    function getCreditTokenizer() public view returns (address) {\n        return galaxy.getCreditTokenizer();\n    }\n    function myBalance() external view returns (uint256) {\n        return galaxy.balanceOf(msg.sender);\n    }\n\n    function setAvatarControls(address avatarControlsAddress) public {\n        avatarControls = AvatarControls(avatarControlsAddress);\n        avatarControls.createAvatar('Great Daemon');\n    }\n\n    /** this method must be called to initialize the galaxy */\n    function genesis() public {\n        galaxy.genesis();\n    }\n\n    /** this method must be called to initialize the first solar system */\n    function makeSolarSystem() public {\n        galaxy.makeSolarSystem();\n    }\n\n    /** Avatars */\n    // function createAvatar(string memory name) public {\n    //    galaxy.createAvatar(name);\n    // }\n\n    /** Ship */\n    function getShip(\n        uint256 shipId\n    ) external view returns (\n        string memory,\n        uint,\n        uint,\n        address\n    ) {\n        return galaxy.getShip(shipId);\n    }\n\n    event ShipLaunch(string _name);\n    function launchShip(string memory name) public {\n        galaxy.launchShip(name);\n        //todo: this shouldn't stay here, just a way to inject some credits\n        galaxy.awardCredits(msg.sender, 100);\n        emit ShipLaunch(name);\n    }\n\n    function renameMyShip(string memory name) public {\n        galaxy.renameMyShip(name);\n    }\n\n    /** Planets */\n\n    function getPlanet(\n        uint256 planetId\n    ) external view returns (\n        string memory,\n        uint256,\n        uint8[4] memory,\n        address,\n        bool[8] memory,\n        bool\n    ) {\n        return galaxy.getPlanet(planetId);\n    }\n\n    function renamePlanet(uint256 id, string memory name) public {\n        galaxy.renamePlanet(id, name);\n    }\n\n    function claimPlanet(\n        uint256 planetId,\n        string memory planetName\n    ) public {\n        return galaxy.claimPlanet(planetId, planetName);\n    }\n\n    function buildStation (\n        uint256 planetId,\n        string memory stationName\n    ) public {\n        galaxy.buildStation(planetId, stationName);\n    }\n\n    /** get planet by system's planet id rather than global planet id */\n    function getLocalPlanet(\n        uint256 orbitalId\n    ) external view returns (\n        string memory,\n        uint256,\n        uint8[4] memory,\n        address,\n        bool[8] memory,\n        bool\n    ) {\n        return galaxy.getLocalPlanet(orbitalId);\n    }\n\n    /** moons */\n\n    function getMoon(\n        uint256 planetId,\n        uint8 moonId\n    ) external view returns (\n        string memory,\n        uint8,\n        uint8,\n        uint8\n        //address\n    ) {\n        return galaxy.getMoon(planetId, moonId);\n    }\n\n    function renameMoon(\n        uint256 planetId,\n        uint8 moonId,\n        string memory name\n    ) public {\n        galaxy.renameMoon(planetId, moonId, name);\n    }\n\n    /** Space Stations */\n\n    function getStation(\n        uint256 planetId\n    ) external view returns (\n        string memory,\n        uint8,\n        int16[3] memory,\n        uint16[4] memory\n    ) {\n        return galaxy.getStation(planetId);\n    }\n\n    function renameStation(uint256 id, string memory name) public {\n        galaxy.renameStation(id, name);\n    }\n\n    function addPortToStation(uint256 id) public {\n        galaxy.addPortToStation(id);\n    }\n\n    event PortTrade(address _sender, uint _planetId, int16 _equipment, int16 _fuel, int16 _organics, int _value);\n    function tradeAtPort(\n        uint256 planetId,\n        int16 equipment,\n        int16 fuel,\n        int16 organics\n    ) public {\n        int tradeValue = galaxy.tradeAtPort(planetId, equipment, fuel, organics);\n        emit PortTrade(msg.sender, planetId, equipment, fuel, organics, tradeValue);\n    }\n\n    function addHoldsToShip(\n        uint256 planetId,\n        uint8 holds\n    ) public {\n        galaxy.addHoldsToShip(planetId, holds);\n    }\n\n    /** Galaxy */\n    function moveToSystem(uint256 destinationSystemId) public  {\n        galaxy.moveToSystem(destinationSystemId);\n    }\n\n    function getSystemCount() public view returns(uint256) {\n        return galaxy.getStarSystemCount();\n    }\n\n    function getMyShipLocation() public view returns(uint256) {\n        return galaxy.getMyShipLocation();\n    }\n\n    function getMyShipId() public view returns(uint256) {\n        return galaxy.getMyShipId();\n    }\n\n    function getMyShip() public view returns(\n        string memory, //name\n        uint,          //star system\n        uint,          //orbit\n        uint8,         //cargo limit\n        uint8,         //equipment\n        uint8,         //fuel\n        uint8          //organics\n    ) {\n        return galaxy.getMyShip();\n    }\n\n    function getPlayerSystemData() public view returns(\n        uint256,\n        string memory,\n        uint8,\n        uint256,\n        address,\n        uint256[12] memory,\n        uint256[14] memory,\n        uint256[30] memory\n    ) {\n        return galaxy.getSystemData(galaxy.getMyShipLocation());\n    }\n\n    function getSystemName(uint256 systemId) public view returns(\n        string memory\n    ) {\n        return galaxy.getSystemName(systemId);\n    }\n\n    function renameStar(string memory name) public {\n        galaxy.renameStar(name);\n    }\n\n\n}",
  "sourcePath": "/home/koda/projects/orbiter8/prototype/contracts/Orbiter8/Orbiter8.sol",
  "compiler": {
    "name": "solc",
    "version": "0.5.16+commit.9c3226ce.Emscripten.clang"
  },
  "schemaVersion": "3.4.3",
  "updatedAt": "2023-02-28T04:03:36.227Z",
  "networkType": "ethereum",
  "devdoc": {
    "methods": {}
  },
  "userdoc": {
    "methods": {
      "genesis()": {
        "notice": "this method must be called to initialize the galaxy "
      },
      "getLocalPlanet(uint256)": {
        "notice": "get planet by system's planet id rather than global planet id "
      },
      "getMoon(uint256,uint8)": {
        "notice": "moons "
      },
      "getPlanet(uint256)": {
        "notice": "Planets "
      },
      "getShip(uint256)": {
        "notice": "Ship "
      },
      "getStation(uint256)": {
        "notice": "Space Stations "
      },
      "makeSolarSystem()": {
        "notice": "this method must be called to initialize the first solar system "
      },
      "moveToSystem(uint256)": {
        "notice": "Galaxy "
      },
      "setCreditTokenizer(address)": {
        "notice": "connection to tokens contract for tracking credits "
      },
      "setPlanetTokenizer(address)": {
        "notice": "connection to tokens contract for tracking planets "
      },
      "setShipTokenizer(address)": {
        "notice": "connection to tokens contract for tracking ships "
      }
    }
  }
}