{
  "contractName": "PlanetTokens",
  "abi": [
    {
      "inputs": [],
      "payable": false,
      "stateMutability": "nonpayable",
      "type": "constructor"
    },
    {
      "anonymous": false,
      "inputs": [
        {
          "indexed": true,
          "internalType": "address",
          "name": "owner",
          "type": "address"
        },
        {
          "indexed": true,
          "internalType": "address",
          "name": "approved",
          "type": "address"
        },
        {
          "indexed": true,
          "internalType": "uint256",
          "name": "tokenId",
          "type": "uint256"
        }
      ],
      "name": "Approval",
      "type": "event"
    },
    {
      "anonymous": false,
      "inputs": [
        {
          "indexed": true,
          "internalType": "address",
          "name": "owner",
          "type": "address"
        },
        {
          "indexed": true,
          "internalType": "address",
          "name": "operator",
          "type": "address"
        },
        {
          "indexed": false,
          "internalType": "bool",
          "name": "approved",
          "type": "bool"
        }
      ],
      "name": "ApprovalForAll",
      "type": "event"
    },
    {
      "anonymous": false,
      "inputs": [
        {
          "indexed": true,
          "internalType": "address",
          "name": "previousOwner",
          "type": "address"
        },
        {
          "indexed": true,
          "internalType": "address",
          "name": "newOwner",
          "type": "address"
        }
      ],
      "name": "OwnershipTransferred",
      "type": "event"
    },
    {
      "anonymous": false,
      "inputs": [
        {
          "indexed": true,
          "internalType": "address",
          "name": "from",
          "type": "address"
        },
        {
          "indexed": true,
          "internalType": "address",
          "name": "to",
          "type": "address"
        },
        {
          "indexed": true,
          "internalType": "uint256",
          "name": "tokenId",
          "type": "uint256"
        }
      ],
      "name": "Transfer",
      "type": "event"
    },
    {
      "constant": false,
      "inputs": [
        {
          "internalType": "address",
          "name": "to",
          "type": "address"
        },
        {
          "internalType": "uint256",
          "name": "tokenId",
          "type": "uint256"
        }
      ],
      "name": "approve",
      "outputs": [],
      "payable": false,
      "stateMutability": "nonpayable",
      "type": "function"
    },
    {
      "constant": true,
      "inputs": [
        {
          "internalType": "address",
          "name": "owner",
          "type": "address"
        }
      ],
      "name": "balanceOf",
      "outputs": [
        {
          "internalType": "uint256",
          "name": "",
          "type": "uint256"
        }
      ],
      "payable": false,
      "stateMutability": "view",
      "type": "function"
    },
    {
      "constant": true,
      "inputs": [],
      "name": "baseURI",
      "outputs": [
        {
          "internalType": "string",
          "name": "",
          "type": "string"
        }
      ],
      "payable": false,
      "stateMutability": "view",
      "type": "function"
    },
    {
      "constant": true,
      "inputs": [
        {
          "internalType": "uint256",
          "name": "tokenId",
          "type": "uint256"
        }
      ],
      "name": "getApproved",
      "outputs": [
        {
          "internalType": "address",
          "name": "",
          "type": "address"
        }
      ],
      "payable": false,
      "stateMutability": "view",
      "type": "function"
    },
    {
      "constant": true,
      "inputs": [
        {
          "internalType": "address",
          "name": "owner",
          "type": "address"
        },
        {
          "internalType": "address",
          "name": "operator",
          "type": "address"
        }
      ],
      "name": "isApprovedForAll",
      "outputs": [
        {
          "internalType": "bool",
          "name": "",
          "type": "bool"
        }
      ],
      "payable": false,
      "stateMutability": "view",
      "type": "function"
    },
    {
      "constant": true,
      "inputs": [],
      "name": "isOwner",
      "outputs": [
        {
          "internalType": "bool",
          "name": "",
          "type": "bool"
        }
      ],
      "payable": false,
      "stateMutability": "view",
      "type": "function"
    },
    {
      "constant": true,
      "inputs": [],
      "name": "name",
      "outputs": [
        {
          "internalType": "string",
          "name": "",
          "type": "string"
        }
      ],
      "payable": false,
      "stateMutability": "view",
      "type": "function"
    },
    {
      "constant": true,
      "inputs": [],
      "name": "owner",
      "outputs": [
        {
          "internalType": "address",
          "name": "",
          "type": "address"
        }
      ],
      "payable": false,
      "stateMutability": "view",
      "type": "function"
    },
    {
      "constant": true,
      "inputs": [
        {
          "internalType": "uint256",
          "name": "tokenId",
          "type": "uint256"
        }
      ],
      "name": "ownerOf",
      "outputs": [
        {
          "internalType": "address",
          "name": "",
          "type": "address"
        }
      ],
      "payable": false,
      "stateMutability": "view",
      "type": "function"
    },
    {
      "constant": false,
      "inputs": [],
      "name": "renounceOwnership",
      "outputs": [],
      "payable": false,
      "stateMutability": "nonpayable",
      "type": "function"
    },
    {
      "constant": false,
      "inputs": [
        {
          "internalType": "address",
          "name": "from",
          "type": "address"
        },
        {
          "internalType": "address",
          "name": "to",
          "type": "address"
        },
        {
          "internalType": "uint256",
          "name": "tokenId",
          "type": "uint256"
        }
      ],
      "name": "safeTransferFrom",
      "outputs": [],
      "payable": false,
      "stateMutability": "nonpayable",
      "type": "function"
    },
    {
      "constant": false,
      "inputs": [
        {
          "internalType": "address",
          "name": "from",
          "type": "address"
        },
        {
          "internalType": "address",
          "name": "to",
          "type": "address"
        },
        {
          "internalType": "uint256",
          "name": "tokenId",
          "type": "uint256"
        },
        {
          "internalType": "bytes",
          "name": "_data",
          "type": "bytes"
        }
      ],
      "name": "safeTransferFrom",
      "outputs": [],
      "payable": false,
      "stateMutability": "nonpayable",
      "type": "function"
    },
    {
      "constant": false,
      "inputs": [
        {
          "internalType": "address",
          "name": "to",
          "type": "address"
        },
        {
          "internalType": "bool",
          "name": "approved",
          "type": "bool"
        }
      ],
      "name": "setApprovalForAll",
      "outputs": [],
      "payable": false,
      "stateMutability": "nonpayable",
      "type": "function"
    },
    {
      "constant": true,
      "inputs": [
        {
          "internalType": "bytes4",
          "name": "interfaceId",
          "type": "bytes4"
        }
      ],
      "name": "supportsInterface",
      "outputs": [
        {
          "internalType": "bool",
          "name": "",
          "type": "bool"
        }
      ],
      "payable": false,
      "stateMutability": "view",
      "type": "function"
    },
    {
      "constant": true,
      "inputs": [],
      "name": "symbol",
      "outputs": [
        {
          "internalType": "string",
          "name": "",
          "type": "string"
        }
      ],
      "payable": false,
      "stateMutability": "view",
      "type": "function"
    },
    {
      "constant": true,
      "inputs": [
        {
          "internalType": "uint256",
          "name": "index",
          "type": "uint256"
        }
      ],
      "name": "tokenByIndex",
      "outputs": [
        {
          "internalType": "uint256",
          "name": "",
          "type": "uint256"
        }
      ],
      "payable": false,
      "stateMutability": "view",
      "type": "function"
    },
    {
      "constant": true,
      "inputs": [
        {
          "internalType": "address",
          "name": "owner",
          "type": "address"
        },
        {
          "internalType": "uint256",
          "name": "index",
          "type": "uint256"
        }
      ],
      "name": "tokenOfOwnerByIndex",
      "outputs": [
        {
          "internalType": "uint256",
          "name": "",
          "type": "uint256"
        }
      ],
      "payable": false,
      "stateMutability": "view",
      "type": "function"
    },
    {
      "constant": true,
      "inputs": [],
      "name": "totalSupply",
      "outputs": [
        {
          "internalType": "uint256",
          "name": "",
          "type": "uint256"
        }
      ],
      "payable": false,
      "stateMutability": "view",
      "type": "function"
    },
    {
      "constant": false,
      "inputs": [
        {
          "internalType": "address",
          "name": "from",
          "type": "address"
        },
        {
          "internalType": "address",
          "name": "to",
          "type": "address"
        },
        {
          "internalType": "uint256",
          "name": "tokenId",
          "type": "uint256"
        }
      ],
      "name": "transferFrom",
      "outputs": [],
      "payable": false,
      "stateMutability": "nonpayable",
      "type": "function"
    },
    {
      "constant": false,
      "inputs": [
        {
          "internalType": "address",
          "name": "newOwner",
          "type": "address"
        }
      ],
      "name": "transferOwnership",
      "outputs": [],
      "payable": false,
      "stateMutability": "nonpayable",
      "type": "function"
    },
    {
      "constant": true,
      "inputs": [
        {
          "internalType": "uint256",
          "name": "tokenId",
          "type": "uint256"
        }
      ],
      "name": "tokenURI",
      "outputs": [
        {
          "internalType": "string",
          "name": "",
          "type": "string"
        }
      ],
      "payable": false,
      "stateMutability": "view",
      "type": "function"
    },
    {
      "constant": false,
      "inputs": [
        {
          "internalType": "uint256",
          "name": "planetId",
          "type": "uint256"
        }
      ],
      "name": "mintPlanet",
      "outputs": [],
      "payable": false,
      "stateMutability": "nonpayable",
      "type": "function"
    },
    {
      "constant": false,
      "inputs": [
        {
          "internalType": "address",
          "name": "owner",
          "type": "address"
        },
        {
          "internalType": "uint256",
          "name": "planetId",
          "type": "uint256"
        }
      ],
      "name": "mintPlanetForUser",
      "outputs": [],
      "payable": false,
      "stateMutability": "nonpayable",
      "type": "function"
    },
    {
      "constant": false,
      "inputs": [
        {
          "internalType": "address",
          "name": "benefactor",
          "type": "address"
        },
        {
          "internalType": "uint256",
          "name": "planetId",
          "type": "uint256"
        }
      ],
      "name": "awardPlanet",
      "outputs": [],
      "payable": false,
      "stateMutability": "nonpayable",
      "type": "function"
    }
  ],
  "bytecode": "0x60806040523480156200001157600080fd5b50604080518082018252601c81527f506c616e657473202d4f726269746572203820416c70686120332e3400000000602080830191909152825180840190935260098352684f38504c414e45545360b81b90830152908181620000846301ffc9a760e01b6001600160e01b036200016b16565b6200009f6380ac58cd60e01b6001600160e01b036200016b16565b620000ba63780e9d6360e01b6001600160e01b036200016b16565b8151620000cf906009906020850190620001f5565b508051620000e590600a906020840190620001f5565b5062000101635b5e139f60e01b6001600160e01b036200016b16565b50505050600062000117620001f060201b60201c565b600d80546001600160a01b0319166001600160a01b038316908117909155604051919250906000907f8be0079c531659141344cd1fd0a4f28419497f9722a3daafe3b4186f6b6457e0908290a35062000297565b6001600160e01b03198082161415620001cb576040805162461bcd60e51b815260206004820152601c60248201527f4552433136353a20696e76616c696420696e7465726661636520696400000000604482015290519081900360640190fd5b6001600160e01b0319166000908152602081905260409020805460ff19166001179055565b335b90565b828054600181600116156101000203166002900490600052602060002090601f016020900481019282601f106200023857805160ff191683800117855562000268565b8280016001018555821562000268579182015b82811115620002685782518255916020019190600101906200024b565b50620002769291506200027a565b5090565b620001f291905b8082111562000276576000815560010162000281565b611e7880620002a76000396000f3fe608060405234801561001057600080fd5b50600436106101985760003560e01c80636c0360eb116100e3578063a22cb4651161008c578063c87b56dd11610066578063c87b56dd1461055f578063e985e9c51461057c578063f2fde38b146105aa57610198565b8063a22cb4651461043f578063b88d4fde1461046d578063bfa3f62c1461053357610198565b80638da5cb5b116100bd5780638da5cb5b146104275780638f32d59b1461042f57806395d89b411461043757610198565b80636c0360eb146103f157806370a08231146103f9578063715018a61461041f57610198565b80632b4dc69b1161014557806342842e0e1161011f57806342842e0e146103815780634f6ccce7146103b75780636352211e146103d457610198565b80632b4dc69b1461030c5780632f745c5914610338578063390dab581461036457610198565b8063095ea7b311610176578063095ea7b31461028e57806318160ddd146102bc57806323b872dd146102d657610198565b806301ffc9a71461019d57806306fdde03146101d8578063081812fc14610255575b600080fd5b6101c4600480360360208110156101b357600080fd5b50356001600160e01b0319166105d0565b604080519115158252519081900360200190f35b6101e06105f3565b6040805160208082528351818301528351919283929083019185019080838360005b8381101561021a578181015183820152602001610202565b50505050905090810190601f1680156102475780820380516001836020036101000a031916815260200191505b509250505060405180910390f35b6102726004803603602081101561026b57600080fd5b503561068a565b604080516001600160a01b039092168252519081900360200190f35b6102ba600480360360408110156102a457600080fd5b506001600160a01b0381351690602001356106ec565b005b6102c4610814565b60408051918252519081900360200190f35b6102ba600480360360608110156102ec57600080fd5b506001600160a01b0381358116916020810135909116906040013561081a565b6102ba6004803603604081101561032257600080fd5b506001600160a01b038135169060200135610876565b6102c46004803603604081101561034e57600080fd5b506001600160a01b0381351690602001356108e5565b6102ba6004803603602081101561037a57600080fd5b5035610964565b6102ba6004803603606081101561039757600080fd5b506001600160a01b038135811691602081013590911690604001356109e3565b6102c4600480360360208110156103cd57600080fd5b50356109fe565b610272600480360360208110156103ea57600080fd5b5035610a64565b6101e0610abe565b6102c46004803603602081101561040f57600080fd5b50356001600160a01b0316610b1f565b6102ba610b87565b610272610c2a565b6101c4610c39565b6101e0610c5f565b6102ba6004803603604081101561045557600080fd5b506001600160a01b0381351690602001351515610cc0565b6102ba6004803603608081101561048357600080fd5b6001600160a01b038235811692602081013590911691604082013591908101906080810160608201356401000000008111156104be57600080fd5b8201836020820111156104d057600080fd5b803590602001918460018302840111640100000000831117156104f257600080fd5b91908080601f016020809104026020016040519081016040528093929190818152602001838380828437600092019190915250929550610dc5945050505050565b6102ba6004803603604081101561054957600080fd5b506001600160a01b038135169060200135610e23565b6101e06004803603602081101561057557600080fd5b5035610e86565b6101c46004803603604081101561059257600080fd5b506001600160a01b0381358116916020013516610f4c565b6102ba600480360360208110156105c057600080fd5b50356001600160a01b0316610f7a565b6001600160e01b0319811660009081526020819052604090205460ff165b919050565b60098054604080516020601f600260001961010060018816150201909516949094049384018190048102820181019092528281526060939092909183018282801561067f5780601f106106545761010080835404028352916020019161067f565b820191906000526020600020905b81548152906001019060200180831161066257829003601f168201915b505050505090505b90565b600061069582610fdc565b6106d05760405162461bcd60e51b815260040180806020018281038252602c815260200180611d16602c913960400191505060405180910390fd5b506000908152600260205260409020546001600160a01b031690565b60006106f782610a64565b9050806001600160a01b0316836001600160a01b0316141561074a5760405162461bcd60e51b8152600401808060200182810382526021815260200180611dc66021913960400191505060405180910390fd5b806001600160a01b031661075c610ff9565b6001600160a01b0316148061077d575061077d81610778610ff9565b610f4c565b6107b85760405162461bcd60e51b8152600401808060200182810382526038815260200180611c8b6038913960400191505060405180910390fd5b60008281526002602052604080822080546001600160a01b0319166001600160a01b0387811691821790925591518593918516917f8c5be1e5ebec7d5bd14f71427d1e84f3dd0314c0f7b2291e5b200ac8c7c3b92591a4505050565b60075490565b61082b610825610ff9565b82610ffd565b6108665760405162461bcd60e51b8152600401808060200182810382526031815260200180611de76031913960400191505060405180910390fd5b6108718383836110a1565b505050565b61087e610c39565b6108cf576040805162461bcd60e51b815260206004820181905260248201527f4f776e61626c653a2063616c6c6572206973206e6f7420746865206f776e6572604482015290519081900360640190fd5b6108e16108da610c2a565b83836110a1565b5050565b60006108f083610b1f565b821061092d5760405162461bcd60e51b815260040180806020018281038252602b815260200180611b95602b913960400191505060405180910390fd5b6001600160a01b038316600090815260056020526040902080548390811061095157fe5b9060005260206000200154905092915050565b61096c610c39565b6109bd576040805162461bcd60e51b815260206004820181905260248201527f4f776e61626c653a2063616c6c6572206973206e6f7420746865206f776e6572604482015290519081900360640190fd5b6109ce6109c8610c2a565b826110c0565b6109e0816109db836110dd565b6111d2565b50565b61087183838360405180602001604052806000815250610dc5565b6000610a08610814565b8210610a455760405162461bcd60e51b815260040180806020018281038252602c815260200180611e18602c913960400191505060405180910390fd5b60078281548110610a5257fe5b90600052602060002001549050919050565b6000818152600160205260408120546001600160a01b031680610ab85760405162461bcd60e51b8152600401808060200182810382526029815260200180611ced6029913960400191505060405180910390fd5b92915050565b600b8054604080516020601f600260001961010060018816150201909516949094049384018190048102820181019092528281526060939092909183018282801561067f5780601f106106545761010080835404028352916020019161067f565b60006001600160a01b038216610b665760405162461bcd60e51b815260040180806020018281038252602a815260200180611cc3602a913960400191505060405180910390fd5b6001600160a01b0382166000908152600360205260409020610ab890611235565b610b8f610c39565b610be0576040805162461bcd60e51b815260206004820181905260248201527f4f776e61626c653a2063616c6c6572206973206e6f7420746865206f776e6572604482015290519081900360640190fd5b600d546040516000916001600160a01b0316907f8be0079c531659141344cd1fd0a4f28419497f9722a3daafe3b4186f6b6457e0908390a3600d80546001600160a01b0319169055565b600d546001600160a01b031690565b600d546000906001600160a01b0316610c50610ff9565b6001600160a01b031614905090565b600a8054604080516020601f600260001961010060018816150201909516949094049384018190048102820181019092528281526060939092909183018282801561067f5780601f106106545761010080835404028352916020019161067f565b610cc8610ff9565b6001600160a01b0316826001600160a01b03161415610d2e576040805162461bcd60e51b815260206004820152601960248201527f4552433732313a20617070726f766520746f2063616c6c657200000000000000604482015290519081900360640190fd5b8060046000610d3b610ff9565b6001600160a01b03908116825260208083019390935260409182016000908120918716808252919093529120805460ff191692151592909217909155610d7f610ff9565b60408051841515815290516001600160a01b0392909216917f17307eab39ab6107e8899845ad3d59bd9653f200f220920489ca2b5937696c319181900360200190a35050565b610dd6610dd0610ff9565b83610ffd565b610e115760405162461bcd60e51b8152600401808060200182810382526031815260200180611de76031913960400191505060405180910390fd5b610e1d84848484611239565b50505050565b610e2b610c39565b610e7c576040805162461bcd60e51b815260206004820181905260248201527f4f776e61626c653a2063616c6c6572206973206e6f7420746865206f776e6572604482015290519081900360640190fd5b6108e182826110c0565b6060610e9182610fdc565b610ecc5760405162461bcd60e51b815260040180806020018281038252602f815260200180611d97602f913960400191505060405180910390fd5b610ed5826110dd565b604051602001806023611c18823960230182805190602001908083835b60208310610f115780518252601f199092019160209182019101610ef2565b6001836020036101000a0380198251168184511680821785525050505050509050019150506040516020818303038152906040529050919050565b6001600160a01b03918216600090815260046020908152604080832093909416825291909152205460ff1690565b610f82610c39565b610fd3576040805162461bcd60e51b815260206004820181905260248201527f4f776e61626c653a2063616c6c6572206973206e6f7420746865206f776e6572604482015290519081900360640190fd5b6109e08161128b565b6000908152600160205260409020546001600160a01b0316151590565b3390565b600061100882610fdc565b6110435760405162461bcd60e51b815260040180806020018281038252602c815260200180611c5f602c913960400191505060405180910390fd5b600061104e83610a64565b9050806001600160a01b0316846001600160a01b031614806110895750836001600160a01b031661107e8461068a565b6001600160a01b0316145b8061109957506110998185610f4c565b949350505050565b6110ac83838361132c565b6110b68382611470565b6108718282611565565b6110ca82826115a3565b6110d48282611565565b6108e1816116d4565b60608161111e575060408051808201909152600181527f300000000000000000000000000000000000000000000000000000000000000060208201526105ee565b8160005b811561113657600101600a82049150611122565b6060816040519080825280601f01601f191660200182016040528015611163576020820181803883390190505b50905060001982015b85156111c957600a860660300160f81b8282806001900393508151811061118f57fe5b60200101907effffffffffffffffffffffffffffffffffffffffffffffffffffffffffffff1916908160001a905350600a8604955061116c565b50949350505050565b6111db82610fdc565b6112165760405162461bcd60e51b815260040180806020018281038252602c815260200180611d42602c913960400191505060405180910390fd5b6000828152600c60209081526040909120825161087192840190611adc565b5490565b6112448484846110a1565b61125084848484611718565b610e1d5760405162461bcd60e51b8152600401808060200182810382526032815260200180611bc06032913960400191505060405180910390fd5b6001600160a01b0381166112d05760405162461bcd60e51b8152600401808060200182810382526026815260200180611bf26026913960400191505060405180910390fd5b600d546040516001600160a01b038084169216907f8be0079c531659141344cd1fd0a4f28419497f9722a3daafe3b4186f6b6457e090600090a3600d80546001600160a01b0319166001600160a01b0392909216919091179055565b826001600160a01b031661133f82610a64565b6001600160a01b0316146113845760405162461bcd60e51b8152600401808060200182810382526029815260200180611d6e6029913960400191505060405180910390fd5b6001600160a01b0382166113c95760405162461bcd60e51b8152600401808060200182810382526024815260200180611c3b6024913960400191505060405180910390fd5b6113d281611968565b6001600160a01b03831660009081526003602052604090206113f3906119a3565b6001600160a01b0382166000908152600360205260409020611414906119ba565b60008181526001602052604080822080546001600160a01b0319166001600160a01b0386811691821790925591518493918716917fddf252ad1be2c89b69c2b068fc378daa952ba7f163c4a11628f55a4df523b3ef91a4505050565b6001600160a01b03821660009081526005602052604081205461149a90600163ffffffff6119c316565b600083815260066020526040902054909150808214611535576001600160a01b03841660009081526005602052604081208054849081106114d757fe5b906000526020600020015490508060056000876001600160a01b03166001600160a01b03168152602001908152602001600020838154811061151557fe5b600091825260208083209091019290925591825260069052604090208190555b6001600160a01b038416600090815260056020526040902080549061155e906000198301611b5a565b5050505050565b6001600160a01b0390911660009081526005602081815260408084208054868652600684529185208290559282526001810183559183529091200155565b6001600160a01b0382166115fe576040805162461bcd60e51b815260206004820181905260248201527f4552433732313a206d696e7420746f20746865207a65726f2061646472657373604482015290519081900360640190fd5b61160781610fdc565b15611659576040805162461bcd60e51b815260206004820152601c60248201527f4552433732313a20746f6b656e20616c7265616479206d696e74656400000000604482015290519081900360640190fd5b600081815260016020908152604080832080546001600160a01b0319166001600160a01b038716908117909155835260039091529020611698906119ba565b60405181906001600160a01b038416906000907fddf252ad1be2c89b69c2b068fc378daa952ba7f163c4a11628f55a4df523b3ef908290a45050565b600780546000838152600860205260408120829055600182018355919091527fa66cc928b5edb82af9bd49922954155ab7b0942694bea4ce44661d9a8736c6880155565b600061172c846001600160a01b0316611a0c565b61173857506001611099565b600060606001600160a01b038616630a85bd0160e11b611756610ff9565b89888860405160240180856001600160a01b03166001600160a01b03168152602001846001600160a01b03166001600160a01b0316815260200183815260200180602001828103825283818151815260200191508051906020019080838360005b838110156117cf5781810151838201526020016117b7565b50505050905090810190601f1680156117fc5780820380516001836020036101000a031916815260200191505b5060408051601f198184030181529181526020820180517bffffffffffffffffffffffffffffffffffffffffffffffffffffffff166001600160e01b0319909a16999099178952518151919890975087965094509250829150849050835b602083106118795780518252601f19909201916020918201910161185a565b6001836020036101000a0380198251168184511680821785525050505050509050019150506000604051808303816000865af19150503d80600081146118db576040519150601f19603f3d011682016040523d82523d6000602084013e6118e0565b606091505b509150915081611931578051156118fa5780518082602001fd5b60405162461bcd60e51b8152600401808060200182810382526032815260200180611bc06032913960400191505060405180910390fd5b600081806020019051602081101561194857600080fd5b50516001600160e01b031916630a85bd0160e11b14935061109992505050565b6000818152600260205260409020546001600160a01b0316156109e057600090815260026020526040902080546001600160a01b0319169055565b80546119b690600163ffffffff6119c316565b9055565b80546001019055565b6000611a0583836040518060400160405280601e81526020017f536166654d6174683a207375627472616374696f6e206f766572666c6f770000815250611a45565b9392505050565b6000813f7fc5d2460186f7233c927e7db2dcc703c0e500b653ca82273b7bfad8045d85a470818114801590611099575050151592915050565b60008184841115611ad45760405162461bcd60e51b81526004018080602001828103825283818151815260200191508051906020019080838360005b83811015611a99578181015183820152602001611a81565b50505050905090810190601f168015611ac65780820380516001836020036101000a031916815260200191505b509250505060405180910390fd5b505050900390565b828054600181600116156101000203166002900490600052602060002090601f016020900481019282601f10611b1d57805160ff1916838001178555611b4a565b82800160010185558215611b4a579182015b82811115611b4a578251825591602001919060010190611b2f565b50611b56929150611b7a565b5090565b815481835581811115610871576000838152602090206108719181019083015b61068791905b80821115611b565760008155600101611b8056fe455243373231456e756d657261626c653a206f776e657220696e646578206f7574206f6620626f756e64734552433732313a207472616e7366657220746f206e6f6e20455243373231526563656976657220696d706c656d656e7465724f776e61626c653a206e6577206f776e657220697320746865207a65726f206164647265737368747470733a2f2f6f726269746572382e636f6d2f746f6b656e732f706c616e65742f4552433732313a207472616e7366657220746f20746865207a65726f20616464726573734552433732313a206f70657261746f7220717565727920666f72206e6f6e6578697374656e7420746f6b656e4552433732313a20617070726f76652063616c6c6572206973206e6f74206f776e6572206e6f7220617070726f76656420666f7220616c6c4552433732313a2062616c616e636520717565727920666f7220746865207a65726f20616464726573734552433732313a206f776e657220717565727920666f72206e6f6e6578697374656e7420746f6b656e4552433732313a20617070726f76656420717565727920666f72206e6f6e6578697374656e7420746f6b656e4552433732314d657461646174613a2055524920736574206f66206e6f6e6578697374656e7420746f6b656e4552433732313a207472616e73666572206f6620746f6b656e2074686174206973206e6f74206f776e4552433732314d657461646174613a2055524920717565727920666f72206e6f6e6578697374656e7420746f6b656e4552433732313a20617070726f76616c20746f2063757272656e74206f776e65724552433732313a207472616e736665722063616c6c6572206973206e6f74206f776e6572206e6f7220617070726f766564455243373231456e756d657261626c653a20676c6f62616c20696e646578206f7574206f6620626f756e6473a265627a7a723158201cef19e90407c8028ea8b4362da09bad6b2ed31445442bc064cc2ace3e10802264736f6c63430005100032",
  "source": "pragma solidity ^0.5.16;\n\nimport \"@openzeppelin/contracts/token/ERC721/ERC721Full.sol\";\nimport \"@openzeppelin/contracts/ownership/Ownable.sol\";\n//import './NFTs.sol';\n\ncontract PlanetTokens is ERC721Full, Ownable {\n\n    constructor() ERC721Full(\"Planets -Orbiter 8 Alpha 3.4\", \"O8PLANETS\") public {\n        //_setBaseURI(\"https://orbiter8.com/tokens/\");\n    }\n\n    /**\n     * overriding method\n     */\n    function tokenURI(uint256 tokenId) external view returns (string memory) {\n        require(_exists(tokenId), \"ERC721Metadata: URI query for nonexistent token\");\n        return string(abi.encodePacked(\"https://orbiter8.com/tokens/planet/\", uint2str(tokenId)));\n    }\n\n    function mintPlanet(uint256 planetId) public onlyOwner {\n        _mint(owner(), planetId);\n        _setTokenURI(planetId, uint2str(planetId));\n    }\n\n    function mintPlanetForUser(address owner, uint256 planetId) public onlyOwner {\n        _mint(owner, planetId);\n    }\n\n    function awardPlanet(address benefactor , uint256 planetId) public onlyOwner {\n        _transferFrom(owner(), benefactor, planetId);\n    }\n\n    // todo: move to a library or something\n    function uint2str(uint _i) internal pure returns (string memory _uintAsString) {\n        if (_i == 0) {\n            return \"0\";\n        }\n        uint j = _i;\n        uint len;\n        while (j != 0) {\n            len++;\n            j /= 10;\n        }\n        bytes memory bstr = new bytes(len);\n        uint k = len - 1;\n        while (_i != 0) {\n            bstr[k--] = byte(uint8(48 + _i % 10));\n            _i /= 10;\n        }\n        return string(bstr);\n    }\n\n}\n",
  "sourcePath": "/home/koda/projects/orbiter8/prototype/contracts/Tokens/PlanetTokens.sol",
  "compiler": {
    "name": "solc",
    "version": "0.5.16+commit.9c3226ce.Emscripten.clang"
  },
  "schemaVersion": "3.4.3",
  "updatedAt": "2023-02-28T03:14:04.655Z",
  "networkType": "ethereum",
  "devdoc": {
    "methods": {
      "approve(address,uint256)": {
        "details": "Approves another address to transfer the given token ID The zero address indicates there is no approved address. There can only be one approved address per token at a given time. Can only be called by the token owner or an approved operator.",
        "params": {
          "to": "address to be approved for the given token ID",
          "tokenId": "uint256 ID of the token to be approved"
        }
      },
      "balanceOf(address)": {
        "details": "Gets the balance of the specified address.",
        "params": {
          "owner": "address to query the balance of"
        },
        "return": "uint256 representing the amount owned by the passed address"
      },
      "baseURI()": {
        "details": "Returns the base URI set via {_setBaseURI}. This will be automatically added as a preffix in {tokenURI} to each token's URI, when they are non-empty.    * _Available since v2.5.0._"
      },
      "getApproved(uint256)": {
        "details": "Gets the approved address for a token ID, or zero if no address set Reverts if the token ID does not exist.",
        "params": {
          "tokenId": "uint256 ID of the token to query the approval of"
        },
        "return": "address currently approved for the given token ID"
      },
      "isApprovedForAll(address,address)": {
        "details": "Tells whether an operator is approved by a given owner.",
        "params": {
          "operator": "operator address which you want to query the approval of",
          "owner": "owner address which you want to query the approval of"
        },
        "return": "bool whether the given operator is approved by the given owner"
      },
      "isOwner()": {
        "details": "Returns true if the caller is the current owner."
      },
      "name()": {
        "details": "Gets the token name.",
        "return": "string representing the token name"
      },
      "owner()": {
        "details": "Returns the address of the current owner."
      },
      "ownerOf(uint256)": {
        "details": "Gets the owner of the specified token ID.",
        "params": {
          "tokenId": "uint256 ID of the token to query the owner of"
        },
        "return": "address currently marked as the owner of the given token ID"
      },
      "renounceOwnership()": {
        "details": "Leaves the contract without owner. It will not be possible to call `onlyOwner` functions anymore. Can only be called by the current owner.     * NOTE: Renouncing ownership will leave the contract without an owner, thereby removing any functionality that is only available to the owner."
      },
      "safeTransferFrom(address,address,uint256)": {
        "details": "Safely transfers the ownership of a given token ID to another address If the target address is a contract, it must implement {IERC721Receiver-onERC721Received}, which is called upon a safe transfer, and return the magic value `bytes4(keccak256(\"onERC721Received(address,address,uint256,bytes)\"))`; otherwise, the transfer is reverted. Requires the msg.sender to be the owner, approved, or operator",
        "params": {
          "from": "current owner of the token",
          "to": "address to receive the ownership of the given token ID",
          "tokenId": "uint256 ID of the token to be transferred"
        }
      },
      "safeTransferFrom(address,address,uint256,bytes)": {
        "details": "Safely transfers the ownership of a given token ID to another address If the target address is a contract, it must implement {IERC721Receiver-onERC721Received}, which is called upon a safe transfer, and return the magic value `bytes4(keccak256(\"onERC721Received(address,address,uint256,bytes)\"))`; otherwise, the transfer is reverted. Requires the _msgSender() to be the owner, approved, or operator",
        "params": {
          "_data": "bytes data to send along with a safe transfer check",
          "from": "current owner of the token",
          "to": "address to receive the ownership of the given token ID",
          "tokenId": "uint256 ID of the token to be transferred"
        }
      },
      "setApprovalForAll(address,bool)": {
        "details": "Sets or unsets the approval of a given operator An operator is allowed to transfer all tokens of the sender on their behalf.",
        "params": {
          "approved": "representing the status of the approval to be set",
          "to": "operator address to set the approval"
        }
      },
      "supportsInterface(bytes4)": {
        "details": "See {IERC165-supportsInterface}.     * Time complexity O(1), guaranteed to always use less than 30 000 gas."
      },
      "symbol()": {
        "details": "Gets the token symbol.",
        "return": "string representing the token symbol"
      },
      "tokenByIndex(uint256)": {
        "details": "Gets the token ID at a given index of all the tokens in this contract Reverts if the index is greater or equal to the total number of tokens.",
        "params": {
          "index": "uint256 representing the index to be accessed of the tokens list"
        },
        "return": "uint256 token ID at the given index of the tokens list"
      },
      "tokenOfOwnerByIndex(address,uint256)": {
        "details": "Gets the token ID at a given index of the tokens list of the requested owner.",
        "params": {
          "index": "uint256 representing the index to be accessed of the requested tokens list",
          "owner": "address owning the tokens list to be accessed"
        },
        "return": "uint256 token ID at the given index of the tokens list owned by the requested address"
      },
      "totalSupply()": {
        "details": "Gets the total amount of tokens stored by the contract.",
        "return": "uint256 representing the total amount of tokens"
      },
      "transferFrom(address,address,uint256)": {
        "details": "Transfers the ownership of a given token ID to another address. Usage of this method is discouraged, use {safeTransferFrom} whenever possible. Requires the msg.sender to be the owner, approved, or operator.",
        "params": {
          "from": "current owner of the token",
          "to": "address to receive the ownership of the given token ID",
          "tokenId": "uint256 ID of the token to be transferred"
        }
      },
      "transferOwnership(address)": {
        "details": "Transfers ownership of the contract to a new account (`newOwner`). Can only be called by the current owner."
      }
    }
  },
  "userdoc": {
    "methods": {
      "tokenURI(uint256)": {
        "notice": "overriding method"
      }
    }
  }
}