{
  "contractName": "PlanetLibrary",
  "abi": [
    {
      "constant": true,
      "inputs": [],
      "name": "costPerHold",
      "outputs": [
        {
          "internalType": "uint16",
          "name": "",
          "type": "uint16"
        }
      ],
      "payable": false,
      "stateMutability": "view",
      "type": "function"
    }
  ],
  "bytecode": "0x610970610026600b82828239805160001a60731461001957fe5b30600052607381538281f3fe730000000000000000000000000000000000000000301460806040526004361061004b5760003560e01c80634b4e7c271461005057806397c19be11461014b578063c9aeb8a914610193575b600080fd5b6100736004803603604081101561006657600080fd5b50803590602001356101b2565b6040805160ff85166020820152908190810184606080838360005b838110156100a657818101518382015260200161008e565b5050505090500183600460200280838360005b838110156100d15781810151838201526020016100b9565b50505050905001828103825286818151815260200191508051906020019080838360005b8381101561010d5781810151838201526020016100f5565b50505050905090810190601f16801561013a5780820380516001836020036101000a031916815260200191505b509550505050505060405180910390f35b81801561015757600080fd5b506101916004803603604081101561016e57600080fd5b508035906020013573ffffffffffffffffffffffffffffffffffffffff16610328565b005b61019b61036a565b6040805161ffff9092168252519081900360200190f35b606060006101be6108ae565b6101c66108cc565b85856101d2828261036f565b610223576040805162461bcd60e51b815260206004820152601360248201527f53746174696f6e206d7573742065786973742e00000000000000000000000000604482015290519081900360640190fd5b60008060006102328b8b61039d565b60008d815260028f0160205260409020600181015493965091945092509060ff1661025d8d8d610528565b6040805160808101825261ffff88811682528781166020808401919091529087168284015260fa60608301528554835160026001831615610100026000190190921691909104601f81018390048302820183019094528381529192869183018282801561030b5780601f106102e05761010080835404028352916020019161030b565b820191906000526020600020905b8154815290600101906020018083116102ee57829003601f168201915b505050505093509850985098509850505050505092959194509250565b81547fffffffffffffffffffffffff00000000000000000000000000000000000000001673ffffffffffffffffffffffffffffffffffffffff91909116179055565b60fa81565b600081815260028301602052604081206001015460ff161561039357506001610397565b5060005b92915050565b600080600084846103ae828261036f565b6103ff576040805162461bcd60e51b815260206004820152601360248201527f53746174696f6e206d7573742065786973742e00000000000000000000000000604482015290519081900360640190fd5b868661040b82826106bd565b61045c576040805162461bcd60e51b815260206004820152601460248201527f506f7274206d757374206e6f742065786973742e000000000000000000000000604482015290519081900360640190fd5b6104646108ae565b61046e8a8a610528565b805160008b815260048d0160205260408120549293509161049c919062010000900460010b60916032610743565b60208084015160008d815260048f019092526040822060019081015493945091926104d39262010000909104900b60416032610743565b9050600061051484600260200201518e60040160008f815260200190815260200160002060020160000160029054906101000a900460010b605a6032610743565b929d919c50919a5098505050505050505050565b6105306108ae565b6105386108ea565b506000828152600484016020908152604091829020825160c0810184528154600181810b810b810b608084019081526201000092839004820b820b820b60a08501528352855180870187528185015480830b830b830b8252839004820b820b820b818701528386015285518087018752600285015480830b830b830b825292909204810b810b900b9381019390935292830191909152600301546060820181905242101561062d576040805162461bcd60e51b815260206004820152601160248201527f696e76616c69642074696d657374616d70000000000000000000000000000000604482015290519081900360640190fd5b6000816060015142039050604051806060016040528061065e83856000015160200151866000015160000151610824565b60010b60010b815260200161068483856020015160200151866020015160000151610824565b60010b60010b81526020016106aa83856040015160200151866040015160000151610824565b60010b60010b8152509250505092915050565b6000818152600483016020526040812054620100009004600190810b900b156106e857506001610397565b60008281526004840160205260409020600190810154620100009004810b900b1561071557506001610397565b6000828152600484016020526040902060020154620100009004600190810b900b1561039357506001610397565b60008360010b6000141561079e576040805162461bcd60e51b815260206004820152601260248201527f696e76616c696420737570706c79206361700000000000000000000000000000604482015290519081900360640190fd5b6000600a8360010b816107ad57fe5b05905060008560010b13156107ef578060010b8460010b6107cd8761088d565b6107d889890361088d565b8660010b02816107e457fe5b05010391505061081c565b8060010b8460010b6108008761088d565b6108098961088d565b8660010b028161081557fe5b0501019150505b949350505050565b6000607882840382826108368361088d565b0290508160010b6000148061084b5750808712155b1561085b57859350505050610886565b60006108668761088d565b8760010b8161087157fe5b0584898161087b57fe5b050286019450505050505b9392505050565b6000808260010b12156108a357816000036108a5565b815b60010b92915050565b60405180606001604052806003906020820280388339509192915050565b60405180608001604052806004906020820280388339509192915050565b60405180608001604052806108fd610924565b815260200161090a610924565b8152602001610917610924565b8152602001600081525090565b60408051808201909152600080825260208201529056fea265627a7a72315820ca8a451b534fb31a5352ae2ead3cef2944e8a087cb469bce730b5b7e447cb1b864736f6c63430005100032",
  "source": "pragma solidity >=0.5.0 <0.6.0;\n\nimport \"../../../Tokens/PlanetTokens.sol\";\n\nlibrary PlanetLibrary {\n\n    /**************************************\n    *\n    * MODELS\n    *\n    ***************************************/\n\n    uint16 public constant costPerHold = 250;\n\n    // Structures\n    struct Planet {\n        string name;\n        uint256 star;\n        uint8 size;\n        uint8 class;\n        uint8 rings;\n        uint8 orbitSpeed;\n    }\n    struct Station {\n        string name;\n        uint8 size;\n        //ship yards: modify ship\n        PortOfTrade port; //port of trade: buy/sell goods\n        //transport hub: transfer humans\n    }\n    //todo: these should become a libraries\n    struct PortOfTrade {\n        SupplyOfGood equipment;\n        SupplyOfGood fuel;\n        SupplyOfGood organics;\n        uint256 lastTradeTime;\n    }\n    struct SupplyOfGood {\n        int16 inventory;        //  100 = selling | -100 = buying\n        int16 supplyCap; // -2000 = always needing more | 2000 = always producing more\n    }\n    struct TransportHub {\n        SupplyOfGood people; // related to planet's population needs\n    }\n    struct ShipYard {\n        uint8 size; // the larger they are, the more services they offer\n    }\n\n    struct PlanetStorage {\n        address planetTokensAddress;\n        Planet[] planets;\n        mapping (uint256 => Station) stations;\n        mapping (uint256 => TransportHub) hubs;\n        mapping (uint256 => PortOfTrade) ports;\n        mapping (uint256 => ShipYard) yards;\n    }\n\n    // Modifiers\n    modifier mustBeUnclaimed (\n        PlanetStorage storage self,\n        uint256 planetId\n    ) {\n        require(PlanetTokens(self.planetTokensAddress).ownerOf(planetId) == address(this), 'Must be unclaimed planet.');\n        _;\n    }\n    modifier mustOwnPlanet (\n        PlanetStorage storage self,\n        uint256 planetId\n    ) {\n        require(isMyPlanet(self, planetId), 'Must be your planet.');\n        _;\n    }\n    modifier stationMustNotExist (\n        PlanetStorage storage self,\n        uint256 planetId\n    ) {\n        require(!stationExists(self, planetId), 'Station already exists.');\n        _;\n    }\n    modifier stationMustExist (\n        PlanetStorage storage self,\n        uint256 planetId\n    ) {\n        require(stationExists(self, planetId), 'Station must exist.');\n        _;\n    }\n    modifier stationMustNotHavePort (\n        PlanetStorage storage self,\n        uint256 planetId\n    ) {\n        require(stationHasPort(self, planetId) == false, 'Port must not exist.');\n        _;\n    }\n    modifier stationMustHavePort (\n        PlanetStorage storage self,\n        uint256 planetId\n    ) {\n        require(stationHasPort(self, planetId), 'Port must not exist.');\n        _;\n    }\n\n    /**************************************\n    *\n    * VIEWS\n    *\n    ***************************************/\n\n    function isMyPlanet(\n        PlanetStorage storage self,\n        uint256 planetId\n    ) internal view returns (bool) {\n        if (PlanetTokens(self.planetTokensAddress).ownerOf(planetId) == msg.sender) return true;\n        return false;\n    }\n\n    function stationExists(\n        PlanetStorage storage self,\n        uint256 planetId\n    ) internal view returns (bool) {\n        if (self.stations[planetId].size > 0) return true;\n        return false;\n    }\n    function stationHasHub(\n        PlanetStorage storage self,\n        uint256 planetId\n    ) internal view returns (bool) {\n        if (self.hubs[planetId].people.supplyCap != 0) return true;\n        return false;\n    }\n    function stationHasPort(\n        PlanetStorage storage self,\n        uint256 planetId\n    ) internal view returns (bool) {\n        if (self.ports[planetId].equipment.supplyCap != 0) return true;\n        if (self.ports[planetId].fuel.supplyCap != 0) return true;\n        if (self.ports[planetId].organics.supplyCap != 0) return true;\n        return false;\n    }\n    function stationHasYard(\n        PlanetStorage storage self,\n        uint256 planetId\n    ) internal view returns (bool) {\n        if (self.yards[planetId].size > 0) return true;\n        return false;\n    }\n\n    function getOwner(\n        PlanetStorage storage self,\n        uint256 planetId\n    ) internal view returns (\n        address\n    ) {\n        return PlanetTokens(self.planetTokensAddress).ownerOf(planetId);\n    }\n\n    function getPlanet(\n        PlanetStorage storage self,\n        uint256 planetId\n    ) internal view returns (\n        string memory,\n        uint256,\n        uint8[4] memory,\n        address,\n        bool\n    ) {\n        address owner = PlanetTokens(self.planetTokensAddress).ownerOf(planetId);\n        if (owner == address(this)) {\n            owner = address(0);\n        }\n        uint8[4] memory attribs = [\n            self.planets[planetId].size,\n            self.planets[planetId].class,\n            self.planets[planetId].rings,\n            self.planets[planetId].orbitSpeed\n        ];\n\n        return (\n            self.planets[planetId].name,\n            self.planets[planetId].star,\n            attribs,\n            owner,\n            stationExists(self, planetId)\n        );\n    }\n\n    function calculateInventoryCategoryGrowth (\n        int256 secondsSinceLastTrade,\n        int16 supplyCap,\n        int16 inventory\n    ) internal pure returns (\n        int16\n    ) {\n        int256 secondsPerItemSpawn = 120;\n        int16 itemsToSpawn = supplyCap - inventory; //could be negative\n        int256 secondsUntilFull = int256(abs(itemsToSpawn) * secondsPerItemSpawn);\n\n        if ((itemsToSpawn == 0) || (secondsSinceLastTrade >= secondsUntilFull)) {\n            return supplyCap;\n        }\n        //from here we know that the time since the last trade does not amount to\n        //enough time to produce enough inventory to hit the supply cap\n        int16 itemsSpawned = int16(\n          (secondsSinceLastTrade / secondsPerItemSpawn) * //absolute number of items times\n          int256(supplyCap / abs(supplyCap))              //retain the sign of supplyCap\n        );\n        return inventory + itemsSpawned;\n    }\n\n    function getInventoryWithGrowth (\n        PlanetStorage storage self,\n        uint256 planetId\n    ) internal view returns (\n        int16[3] memory\n    ) {\n        PortOfTrade memory port = self.ports[planetId];\n        require(port.lastTradeTime <= block.timestamp, \"invalid timestamp\");\n        int256 secondsSinceLastTrade = int256(block.timestamp - port.lastTradeTime);\n\n        return [\n            calculateInventoryCategoryGrowth(secondsSinceLastTrade, port.equipment.supplyCap, port.equipment.inventory),\n            calculateInventoryCategoryGrowth(secondsSinceLastTrade, port.fuel.supplyCap, port.fuel.inventory),\n            calculateInventoryCategoryGrowth(secondsSinceLastTrade, port.organics.supplyCap, port.organics.inventory)\n        ];\n\n    }\n\n    function getStation (\n        PlanetStorage storage self,\n        uint256 planetId\n    ) external view stationMustExist(self, planetId) returns (\n        string memory,\n        uint8,\n        int16[3] memory,\n        uint16[4] memory\n    ) {\n        (uint16 equipmentPrice, uint16 fuelPrice, uint16 organicsPrice) = getPortPrices(self, planetId);\n        return (\n            self.stations[planetId].name,\n            self.stations[planetId].size,\n            getInventoryWithGrowth(self, planetId),\n            //[\n            //    self.ports[planetId].equipment.inventory,\n            //    self.ports[planetId].fuel.inventory,\n            //    self.ports[planetId].organics.inventory\n            //],\n            [\n                equipmentPrice,\n                fuelPrice,\n                organicsPrice,\n                costPerHold\n            ]\n        );\n    }\n\n    function getPlanetTokenizer(PlanetStorage storage self) internal view returns(address) {\n        return self.planetTokensAddress;\n    }\n\n    function getPlanetLocation(\n        PlanetStorage storage self,\n        uint256 id\n    ) internal view returns (\n        uint256\n    ) {\n        return (\n            self.planets[id].star\n        );\n    }\n\n    /**************************************\n    *\n    * CONTROLS\n    *\n    ***************************************/\n\n    function setPlanetTokenizer(\n        PlanetStorage storage self,\n        address tokenAddress\n    ) public {\n        self.planetTokensAddress = tokenAddress;\n    }\n\n    function createStation(\n        PlanetStorage storage self,\n        uint256 planetId,\n        string memory name,\n        uint8 size\n    ) internal stationMustNotExist(self, planetId) { //todo: add planetMustExist\n        self.stations[planetId].name = name;\n        self.stations[planetId].size = size;\n    }\n\n    function calculatePrice(\n        int16 inventory,\n        int16 supplyCap,\n        int16 foundationPrice,\n        int16 liquidPrice\n    ) internal pure returns (uint16) {\n        require(supplyCap != 0, \"invalid supply cap\");\n        int16 playerBias = liquidPrice / 10;\n        //port is selling\n        if (supplyCap > 0) {\n            return uint16(liquidPrice * abs(supplyCap - inventory) / abs(supplyCap) + foundationPrice - playerBias);\n        }\n        return uint16(liquidPrice * abs(inventory) / abs(supplyCap) + foundationPrice + playerBias);\n    }\n\n    function getPortPrices (\n        PlanetStorage storage self,\n        uint256 planetId\n    ) internal view stationMustExist(self, planetId) stationMustHavePort(self, planetId) returns (\n        uint16,\n        uint16,\n        uint16\n    ) {\n        int16[3] memory inventory = getInventoryWithGrowth(self, planetId);\n        uint16 equipmentPrice =  calculatePrice(\n            inventory[0],\n            self.ports[planetId].equipment.supplyCap,\n            145,\n            50\n        );\n        uint16 fuelPrice = calculatePrice(\n            inventory[1],\n            self.ports[planetId].fuel.supplyCap,\n            65,\n            50\n        );\n        uint16 organicsPrice = calculatePrice(\n            inventory[2],\n            self.ports[planetId].organics.supplyCap,\n            90,\n            50\n        );\n        return(equipmentPrice, fuelPrice, organicsPrice);\n    }\n\n    function getTradeValue (\n        PlanetStorage storage self,\n        uint256 planetId,\n        int16 equipment,\n        int16 fuel,\n        int16 organics\n    ) internal view stationMustExist(self, planetId) stationMustHavePort(self, planetId) returns (int256) {\n        (uint16 equipmentPrice, uint16 fuelPrice, uint16 organicsPrice) = getPortPrices(self, planetId);\n        return int256(\n            (   int256(equipmentPrice) * int256(equipment) +\n                int256(fuelPrice) * int256(fuel) +\n                int256(organicsPrice) * int256(organics)\n            ) * -1\n        );\n    }\n\n    function updateInventoryWithGrowth(\n        PlanetStorage storage self,\n        uint256 planetId\n    ) internal {\n        int16[3] memory newInventory = getInventoryWithGrowth(self, planetId);\n        self.ports[planetId].equipment.inventory = newInventory[0];\n        self.ports[planetId].fuel.inventory = newInventory[1];\n        self.ports[planetId].organics.inventory = newInventory[2];\n        self.ports[planetId].lastTradeTime = block.timestamp;\n    }\n\n\n    function modifyPortInventory(\n        PlanetStorage storage self,\n        uint256 planetId,\n        int16 equipment,\n        int16 fuel,\n        int16 organics\n    ) internal stationMustExist(self, planetId) stationMustHavePort(self, planetId) returns (int256) {\n        //record any newly generated inventory\n        updateInventoryWithGrowth(self, planetId);\n        //required stock exists\n        require(abs(self.ports[planetId].equipment.inventory) >= abs(equipment), 'Inadequate equipment');\n        require(abs(self.ports[planetId].fuel.inventory) >= abs(fuel), 'Inadequate fuel');\n        require(abs(self.ports[planetId].organics.inventory) >= abs(organics), 'Inadequate organics');\n        //both values have the same sign\n        require(int256(self.ports[planetId].equipment.inventory) * int256(equipment) >= 0, 'Equipment clash');\n        require(int256(self.ports[planetId].fuel.inventory) * int256(fuel) >= 0, 'Fuel clash');\n        require(int256(self.ports[planetId].organics.inventory) * int256(organics) >= 0, 'Organics clash');\n\n        int256 tradeValue = getTradeValue(self, planetId, equipment, fuel, organics);\n\n        self.ports[planetId].equipment.inventory -= equipment;\n        self.ports[planetId].fuel.inventory -= fuel;\n        self.ports[planetId].organics.inventory -= organics;\n\n\n        return tradeValue;\n    }\n\n    //todo: this should be in a library and I should be using safe math everywhere\n    function abs(int16 x) private pure returns (int) {\n        return x >= 0 ? x : -x;\n    }\n\n    function addPortToStation(\n        PlanetStorage storage self,\n        uint256 planetId\n    ) internal stationMustExist(self, planetId) stationMustNotHavePort(self, planetId) {\n        int16 equipment;\n        int16 fuel;\n        int16 organics;\n        if (self.planets[planetId].class == 0) { //Terrestrial\n          equipment = 500;  //S\n          fuel = -1750;      // B\n          organics = 1500;   //S\n        } else if (self.planets[planetId].class == 1) { //Rocky\n          equipment =  1000;//S\n          fuel = -2000;     // B\n          organics = -1000; // B\n        } else if (self.planets[planetId].class == 2) { //Oceanic\n          equipment = -1000;// B\n          fuel = 1000;      //S\n          organics = 2000;  //S\n        } else if (self.planets[planetId].class == 3) { //Desert\n          equipment = 750;  //S\n          fuel = 2000;      //S\n          organics = -1000; // B\n        } else if (self.planets[planetId].class == 4) { //Ice\n          equipment = 500;  //S\n          fuel = -1000;     // B\n          organics = 1000;  //S\n        } else if (self.planets[planetId].class == 5) { //Volcanic\n          equipment = -500; // B\n          fuel = 2000;      //S\n          organics = 500;   // B\n        } else if (self.planets[planetId].class == 6) { //Gaseous\n          equipment = -500; // B\n          fuel = 2000;      //S\n          organics = -500;  // B\n        } else if (self.planets[planetId].class == 7) { //Ferrous\n          equipment = 2000; //S\n          fuel = -500;      // B\n          organics = -2000; // B\n        } else if (self.planets[planetId].class == 8) { //Lava\n          equipment = -500; // B\n          fuel = 1500;      //S\n          organics = 500;   //S\n        } else if (self.planets[planetId].class == 9) { //Swamp\n          equipment = -1500;// B\n          fuel = -1000;     // B\n          organics = 2000;  //S\n        }\n        //e ssbssbbsbb 5 5\n        //f bbssbssbss 6 4\n        //o sbsbsbbbss 5 5\n\n        self.ports[planetId].equipment.supplyCap = equipment;\n        self.ports[planetId].fuel.supplyCap = fuel;\n        self.ports[planetId].organics.supplyCap = organics;\n\n        self.ports[planetId].equipment.inventory = equipment;\n        self.ports[planetId].fuel.inventory = fuel;\n        self.ports[planetId].organics.inventory = organics;\n\n        //self.ports[planetId].lastTradeTime = block.timestamp;\n    }\n\n    function renameStation (\n        PlanetStorage storage self,\n        uint256 _planetId,\n        string memory _newName\n    ) internal stationMustExist(self, _planetId) {\n        self.stations[_planetId].name = _newName;\n    }\n\n    function createRandomPlanet(\n        PlanetStorage storage self,\n        uint256 star,\n        uint256 dna,\n        uint8   distance\n    ) internal returns (\n        uint256\n    ) {\n        // todo: be smarter about what plants are likely at what distance\n        uint8 size = uint8(dna % (20 + distance * 2)) + 1;\n        uint8 class = uint8((dna / 50) % 10);\n        uint8 rings = uint8((dna / 100) % 10);\n        uint8 ringchance = uint8((dna / 1000) % 10);\n        rings = (ringchance > 2) ? 0: rings;\n        uint8 orbitSpeed = uint8(255 - ((dna / 1000) % 150)) / (distance + 1);\n        return createPlanet(\n            self,\n            'Unexplored Planet',\n            star,\n            size,\n            class,\n            rings,\n            orbitSpeed\n        );\n    }\n\n    function createPlanet(\n        PlanetStorage storage self,\n        string memory name,\n        uint256 star,\n        uint8 size,\n        uint8 class,\n        uint8 rings,\n        uint8 orbitSpeed\n    ) internal returns (\n        uint256\n    ) {\n        uint256 planetId = (self.planets.push(\n            Planet(\n                name,\n                star,\n                size,\n                class,\n                rings,\n                orbitSpeed\n            )\n        )) - 1;\n        PlanetTokens(self.planetTokensAddress).mintPlanet(planetId);\n\n        return planetId;\n    }\n\n    function claimPlanet(\n        PlanetStorage storage self,\n        uint256 planetId\n    ) internal mustBeUnclaimed(self, planetId) {\n        PlanetTokens(self.planetTokensAddress).awardPlanet(msg.sender, planetId);\n    }\n\n    function renamePlanet(\n        PlanetStorage storage self,\n        uint256 planetId,\n        string memory _newName\n    ) internal mustOwnPlanet(self, planetId) {\n        self.planets[planetId].name = _newName;\n    }\n}",
  "sourcePath": "/home/koda/projects/orbiter8/prototype/contracts/Orbiter8/StarSystems/SystemObjects/PlanetLibrary.sol",
  "compiler": {
    "name": "solc",
    "version": "0.5.16+commit.9c3226ce.Emscripten.clang"
  },
  "schemaVersion": "3.4.3",
  "updatedAt": "2023-02-28T03:10:36.623Z",
  "networkType": "ethereum",
  "devdoc": {
    "methods": {}
  },
  "userdoc": {
    "methods": {
      "setPlanetTokenizer(PlanetLibrary.PlanetStorage storage,address)": {
        "notice": "************************************    * CONTROLS    **************************************"
      }
    }
  }
}