{
  "contractName": "PresetLibrary",
  "abi": [
    {
      "constant": true,
      "inputs": [],
      "name": "class",
      "outputs": [
        {
          "internalType": "uint8",
          "name": "",
          "type": "uint8"
        }
      ],
      "payable": false,
      "stateMutability": "view",
      "type": "function"
    },
    {
      "constant": true,
      "inputs": [],
      "name": "moon",
      "outputs": [
        {
          "internalType": "uint8",
          "name": "",
          "type": "uint8"
        }
      ],
      "payable": false,
      "stateMutability": "view",
      "type": "function"
    },
    {
      "constant": true,
      "inputs": [],
      "name": "nothing",
      "outputs": [
        {
          "internalType": "uint8",
          "name": "",
          "type": "uint8"
        }
      ],
      "payable": false,
      "stateMutability": "view",
      "type": "function"
    },
    {
      "constant": true,
      "inputs": [],
      "name": "objectType",
      "outputs": [
        {
          "internalType": "uint8",
          "name": "",
          "type": "uint8"
        }
      ],
      "payable": false,
      "stateMutability": "view",
      "type": "function"
    },
    {
      "constant": true,
      "inputs": [],
      "name": "planet",
      "outputs": [
        {
          "internalType": "uint8",
          "name": "",
          "type": "uint8"
        }
      ],
      "payable": false,
      "stateMutability": "view",
      "type": "function"
    },
    {
      "constant": true,
      "inputs": [],
      "name": "rings",
      "outputs": [
        {
          "internalType": "uint8",
          "name": "",
          "type": "uint8"
        }
      ],
      "payable": false,
      "stateMutability": "view",
      "type": "function"
    },
    {
      "constant": true,
      "inputs": [],
      "name": "size",
      "outputs": [
        {
          "internalType": "uint8",
          "name": "",
          "type": "uint8"
        }
      ],
      "payable": false,
      "stateMutability": "view",
      "type": "function"
    },
    {
      "constant": true,
      "inputs": [],
      "name": "slot",
      "outputs": [
        {
          "internalType": "uint8",
          "name": "",
          "type": "uint8"
        }
      ],
      "payable": false,
      "stateMutability": "view",
      "type": "function"
    },
    {
      "constant": true,
      "inputs": [],
      "name": "speed",
      "outputs": [
        {
          "internalType": "uint8",
          "name": "",
          "type": "uint8"
        }
      ],
      "payable": false,
      "stateMutability": "view",
      "type": "function"
    },
    {
      "constant": true,
      "inputs": [],
      "name": "station",
      "outputs": [
        {
          "internalType": "uint8",
          "name": "",
          "type": "uint8"
        }
      ],
      "payable": false,
      "stateMutability": "view",
      "type": "function"
    },
    {
      "constant": true,
      "inputs": [
        {
          "internalType": "uint8",
          "name": "id",
          "type": "uint8"
        }
      ],
      "name": "isNothing",
      "outputs": [
        {
          "internalType": "bool",
          "name": "",
          "type": "bool"
        }
      ],
      "payable": false,
      "stateMutability": "pure",
      "type": "function"
    },
    {
      "constant": true,
      "inputs": [
        {
          "internalType": "uint8",
          "name": "id",
          "type": "uint8"
        }
      ],
      "name": "isPlanet",
      "outputs": [
        {
          "internalType": "bool",
          "name": "",
          "type": "bool"
        }
      ],
      "payable": false,
      "stateMutability": "pure",
      "type": "function"
    },
    {
      "constant": true,
      "inputs": [
        {
          "internalType": "uint8",
          "name": "id",
          "type": "uint8"
        }
      ],
      "name": "isMoon",
      "outputs": [
        {
          "internalType": "bool",
          "name": "",
          "type": "bool"
        }
      ],
      "payable": false,
      "stateMutability": "pure",
      "type": "function"
    },
    {
      "constant": true,
      "inputs": [
        {
          "internalType": "uint8",
          "name": "id",
          "type": "uint8"
        }
      ],
      "name": "isStation",
      "outputs": [
        {
          "internalType": "bool",
          "name": "",
          "type": "bool"
        }
      ],
      "payable": false,
      "stateMutability": "pure",
      "type": "function"
    },
    {
      "constant": true,
      "inputs": [
        {
          "internalType": "uint8",
          "name": "id",
          "type": "uint8"
        }
      ],
      "name": "getName",
      "outputs": [
        {
          "internalType": "string",
          "name": "",
          "type": "string"
        }
      ],
      "payable": false,
      "stateMutability": "pure",
      "type": "function"
    },
    {
      "constant": true,
      "inputs": [
        {
          "internalType": "uint8",
          "name": "id",
          "type": "uint8"
        }
      ],
      "name": "getSize",
      "outputs": [
        {
          "internalType": "uint8",
          "name": "",
          "type": "uint8"
        }
      ],
      "payable": false,
      "stateMutability": "pure",
      "type": "function"
    },
    {
      "constant": true,
      "inputs": [
        {
          "internalType": "uint8",
          "name": "id",
          "type": "uint8"
        }
      ],
      "name": "getClass",
      "outputs": [
        {
          "internalType": "uint8",
          "name": "",
          "type": "uint8"
        }
      ],
      "payable": false,
      "stateMutability": "pure",
      "type": "function"
    },
    {
      "constant": true,
      "inputs": [
        {
          "internalType": "uint8",
          "name": "id",
          "type": "uint8"
        }
      ],
      "name": "getRings",
      "outputs": [
        {
          "internalType": "uint8",
          "name": "",
          "type": "uint8"
        }
      ],
      "payable": false,
      "stateMutability": "pure",
      "type": "function"
    },
    {
      "constant": true,
      "inputs": [
        {
          "internalType": "uint8",
          "name": "id",
          "type": "uint8"
        }
      ],
      "name": "getSlot",
      "outputs": [
        {
          "internalType": "uint8",
          "name": "",
          "type": "uint8"
        }
      ],
      "payable": false,
      "stateMutability": "pure",
      "type": "function"
    },
    {
      "constant": true,
      "inputs": [
        {
          "internalType": "uint8",
          "name": "id",
          "type": "uint8"
        }
      ],
      "name": "getSpeed",
      "outputs": [
        {
          "internalType": "uint8",
          "name": "",
          "type": "uint8"
        }
      ],
      "payable": false,
      "stateMutability": "pure",
      "type": "function"
    }
  ],
  "bytecode": "0x611729610026600b82828239805160001a60731461001957fe5b30600052607381538281f3fe73000000000000000000000000000000000000000030146080604052600436106101765760003560e01c8063b24f6b1b116100d7578063d43eb1f21161008b578063d7ca989211610070578063d7ca989214610302578063ed7af49b14610322578063fa4233e81461034257610176565b8063d43eb1f21461017b578063d6a15240146101b157610176565b8063bff852fa116100bc578063bff852fa146102f2578063c20906ac146102fa578063d3c7155b146101b957610176565b8063b24f6b1b146102d2578063b9094851146102f257610176565b80638443bea61161012e5780638aebd799116101135780638aebd799146102925780638bb5ad96146102b2578063949d225d1461025657610176565b80638443bea6146102565780638497f27c1461025e57610176565b80634127278c1161015f5780634127278c146101b1578063448f30a3146101b9578063618b220f146101c157610176565b8063070fd8a01461017b5780631a88bc66146101b1575b600080fd5b61019b6004803603602081101561019157600080fd5b503560ff16610362565b6040805160ff9092168252519081900360200190f35b61019b610389565b61019b61038e565b6101e1600480360360208110156101d757600080fd5b503560ff16610393565b6040805160208082528351818301528351919283929083019185019080838360005b8381101561021b578181015183820152602001610203565b50505050905090810190601f1680156102485780820380516001836020036101000a031916815260200191505b509250505060405180910390f35b61019b6103a7565b61027e6004803603602081101561027457600080fd5b503560ff166103ac565b604080519115158252519081900360200190f35b61027e600480360360208110156102a857600080fd5b503560ff166103d9565b61019b600480360360208110156102c857600080fd5b503560ff166103fa565b61019b600480360360208110156102e857600080fd5b503560ff16610419565b61019b610438565b61019b61043d565b61027e6004803603602081101561031857600080fd5b503560ff16610442565b61027e6004803603602081101561033857600080fd5b503560ff16610462565b61019b6004803603602081101561035857600080fd5b503560ff16610483565b600061036c6116d6565b610375836104a2565b915081905060035b60200201519392505050565b600381565b600081565b60608061039f836104a2565b509392505050565b600181565b60006103b66116d6565b6103bf836104a2565b9150600290508160005b602002015160ff16149392505050565b60006103e36116d6565b6103ec836104a2565b9150600190508160006103c9565b60006104046116d6565b61040d836104a2565b9150819050600261037d565b60006104236116d6565b61042c836104a2565b9150819050600461037d565b600281565b600481565b600061044c6116d6565b610455836104a2565b91506000905081816103c9565b600061046c6116d6565b610475836104a2565b9150600390508160006103c9565b600061048d6116d6565b610496836104a2565b9150819050600161037d565b60606104ac6116d6565b60ff831661051b5750506040805160a08101825260018082526003602080840191909152828401919091526000606083015260fa60808301528251808401909352600783527f4d65726375727900000000000000000000000000000000000000000000000000908301526116d1565b8260ff166001141561058c5750506040805160a08101825260038152600160208083019190915260008284018190526060830152600f60808301528251808401909352600683527f4963617275730000000000000000000000000000000000000000000000000000908301526116d1565b8260ff16600214156105fd5750506040805160a08101825260018152600c60208083019190915260058284018190526000606084015260536080840152835180850190945283527f56656e7573000000000000000000000000000000000000000000000000000000908301526116d1565b8260ff166003141561066e5750506040805160a08101825260038152600160208083018290526000838501526060830191909152600f60808301528251808401909352600d83527f506f727420486573706572757300000000000000000000000000000000000000908301526116d1565b8260ff16600414156106df5750506040805160a08101825260018152600c60208083019190915260008284018190526060830152603260808301528251808401909352600583527f4561727468000000000000000000000000000000000000000000000000000000908301526116d1565b8260ff166005141561074e5750506040805160a081018252600381526006602080830182905260008385018190526060840152600a608084015283518085019094529083527f492e532e532e0000000000000000000000000000000000000000000000000000908301526116d1565b8260ff16600614156107bf5750506040805160a08101825260028152600a60208083019190915260018284018190526060830152606460808301528251808401909352600483527f4c756e6100000000000000000000000000000000000000000000000000000000908301526116d1565b8260ff16600714156108325750506040805160a081018252600180825260066020808401919091528284019190915260006060830152601a60808301528251808401909352600483527f4d61727300000000000000000000000000000000000000000000000000000000908301526116d1565b8260ff16600814156108a35750506040805160a08101825260038152600460208083018290528284019190915260006060830152600f60808301528251808401909352600883527f5469616e676f6e67000000000000000000000000000000000000000000000000908301526116d1565b8260ff16600914156109145750506040805160a0810182526002815260016020808301829052828401919091526000606083015260b960808301528251808401909352600683527f50686f626f730000000000000000000000000000000000000000000000000000908301526116d1565b8260ff16600a14156109855750506040805160a08101825260028152600160208083018290528284019190915260036060830152602a60808301528251808401909352600683527f4465696d6f730000000000000000000000000000000000000000000000000000908301526116d1565b8260ff16600b14156109f65750506040805160a08101825260018152603660208083019190915260068284015260006060830152600560808301528251808401909352600783527f4a75706974657200000000000000000000000000000000000000000000000000908301526116d1565b8260ff16600c1415610a675750506040805160a08101825260038152600c60208083019190915260008284018190526060830152600760808301528251808401909352600d83527f547963686f2053746174696f6e00000000000000000000000000000000000000908301526116d1565b8260ff16600d1415610ad85750506040805160a0810182526002808252600a602080840191909152600183850181905260608401526029608084015283518085019094529083527f496f000000000000000000000000000000000000000000000000000000000000908301526116d1565b8260ff16600e1415610b4b5750506040805160a081018252600280825260086020808401919091526001838501526060830191909152602a60808301528251808401909352600683527f4575726f70610000000000000000000000000000000000000000000000000000908301526116d1565b8260ff16600f1415610bbc5750506040805160a08101825260028152600e60208083019190915260018284015260036060830152603860808301528251808401909352600883527f47616e796d656465000000000000000000000000000000000000000000000000908301526116d1565b8260ff1660101415610c2d5750506040805160a08101825260028152600e60208083019190915260018284015260046060830152601a60808301528251808401909352600883527f43616c6c6973746f000000000000000000000000000000000000000000000000908301526116d1565b8260ff1660111415610c9e5750506040805160a0810182526001815260246020808301919091526006828401819052600a606084015260046080840152835180850190945283527f53617475726e0000000000000000000000000000000000000000000000000000908301526116d1565b8260ff1660121415610d0f5750506040805160a08101825260038152600a60208083019190915260018284015260006060830152600f60808301528251808401909352600b83527f5469636f6e6465726f6761000000000000000000000000000000000000000000908301526116d1565b8260ff1660131415610d805750506040805160a08101825260028152600360208083019190915260018284015260006060830152606f60808301528251808401909352600983527f456e63656c616475730000000000000000000000000000000000000000000000908301526116d1565b8260ff1660141415610df15750506040805160a08101825260028152600360208083019190915260018284018190526060830152602e60808301528251808401909352600683527f5465746879730000000000000000000000000000000000000000000000000000908301526116d1565b8260ff1660151415610e645750506040805160a081018252600280825260036020808401919091526001838501526060830191909152601560808301528251808401909352600583527f44696f6e65000000000000000000000000000000000000000000000000000000908301526116d1565b8260ff1660161415610ed55750506040805160a08101825260028152600560208083019190915260018284015260036060830152604760808301528251808401909352600483527f5268656100000000000000000000000000000000000000000000000000000000908301526116d1565b8260ff1660171415610f465750506040805160a08101825260028152600e60208083019190915260018284015260046060830152604360808301528251808401909352600583527f546974616e000000000000000000000000000000000000000000000000000000908301526116d1565b8260ff1660181415610fb75750506040805160a08101825260028152600560208083018290526001838501526060830191909152601f60808301528251808401909352600783527f4961706574757300000000000000000000000000000000000000000000000000908301526116d1565b8260ff166019141561102a5750506040805160a081018252600180825260186020808401919091526004838501526060830191909152600360808301528251808401909352600683527f5572616e75730000000000000000000000000000000000000000000000000000908301526116d1565b8260ff16601a14156110835750506040805160a081018252600380825260208083019190915260008284018190526060830152600f60808301528251808401909352600683526527b132b937b760d11b908301526116d1565b8260ff16601b14156110f45750506040805160a08101825260028152600160208083018290528284019190915260006060830152601d60808301528251808401909352600483527f5075636b00000000000000000000000000000000000000000000000000000000908301526116d1565b8260ff16601c14156111655750506040805160a08101825260028152600360208083019190915260018284018190526060830152600560808301528251808401909352600783527f4d6972616e646100000000000000000000000000000000000000000000000000908301526116d1565b8260ff16601d14156111d55750506040805160a081018252600280825260056020808401829052600184860152606084019290925260216080840152835180850190945283527f417269656c000000000000000000000000000000000000000000000000000000908301526116d1565b8260ff16601e14156112465750506040805160a08101825260028152600560208083019190915260018284015260036060830152600a60808301528251808401909352600783527f556d627269656c00000000000000000000000000000000000000000000000000908301526116d1565b8260ff16601f14156112b75750506040805160a08101825260028152600560208083019190915260018284015260046060830152602960808301528251808401909352600783527f546974616e696100000000000000000000000000000000000000000000000000908301526116d1565b8260ff16602014156113115750506040805160a08101825260028152600560208083018290526001838501526060830191909152601460808301528251808401909352600683526527b132b937b760d11b908301526116d1565b8260ff16602114156113825750506040805160a08101825260018152601860208083019190915260048284015260006060830152600a60808301528251808401909352600783527f4e657074756e6500000000000000000000000000000000000000000000000000908301526116d1565b8260ff16602214156113f25750506040805160a081018252600380825260208083019190915260008284018190526060830152600f60808301528251808401909352600d83527f54657272612056656e7475726500000000000000000000000000000000000000908301526116d1565b8260ff16602314156114635750506040805160a08101825260028152600160208083018290528284018290526060830191909152601960808301528251808401909352600783527f50726f7465757300000000000000000000000000000000000000000000000000908301526116d1565b8260ff16602414156114d65750506040805160a081018252600280825260096020808401919091526001838501526060830191909152601660808301528251808401909352600683527f547269746f6e0000000000000000000000000000000000000000000000000000908301526116d1565b8260ff16602514156115475750506040805160a08101825260028152600160208083018290528284019190915260036060830152601c60808301528251808401909352600683527f4e65726569640000000000000000000000000000000000000000000000000000908301526116d1565b8260ff16602614156115b75750506040805160a081018252600180825260208083018290528284018290526000606084015260808301919091528251808401909352600583527f506c75746f000000000000000000000000000000000000000000000000000000908301526116d1565b8260ff16602714156116285750506040805160a08101825260038152600160208083018290528284019190915260006060830152600f60808301528251808401909352600c83527f4e6572766120426561636f6e0000000000000000000000000000000000000000908301526116d1565b8260ff16602814156116995750506040805160a08101825260028152600160208083018290528284019190915260036060830152601560808301528251808401909352600683527f436861726f6e0000000000000000000000000000000000000000000000000000908301526116d1565b50506040805160a081018252600080825260208083018290528284018290526060830182905260808301829052835190810190935282525b915091565b6040518060a00160405280600590602082028038833950919291505056fea265627a7a72315820cefd79a38e3c86d2f31b3eaf56ae3e3ead547dcebe1c577cadf24438dbf354ae64736f6c63430005100032",
  "source": "pragma solidity >=0.5.0 <0.6.0;\n\nlibrary PresetLibrary {\n\n    uint8 public constant nothing = 0;\n    uint8 public constant planet = 1;\n    uint8 public constant moon = 2;\n    uint8 public constant station = 3;\n\n    uint8 public constant objectType = 0;\n    uint8 public constant size = 1;\n    uint8 public constant class = 2;\n    uint8 public constant rings = 3;\n    uint8 public constant slot = 3;\n    uint8 public constant speed = 4;\n\n    /* check type */\n\n    function isNothing(uint8 id) external pure returns (\n        bool\n    ) {\n        ( , uint8[5] memory template) = getSolarSystem(id);\n        return template[objectType] == nothing;\n    }\n\n    function isPlanet(uint8 id) external pure returns (\n        bool\n    ) {\n        ( , uint8[5] memory template) = getSolarSystem(id);\n        return template[objectType] == planet;\n    }\n\n    function isMoon(uint8 id) external pure returns (\n        bool\n    ) {\n        ( , uint8[5] memory template) = getSolarSystem(id);\n        return template[objectType] == moon;\n    }\n\n    function isStation(uint8 id) external pure returns (\n        bool\n    ) {\n        ( , uint8[5] memory template) = getSolarSystem(id);\n        return template[objectType] == station;\n    }\n\n    /* get values */\n\n    function getName(uint8 id) external pure returns (\n        string memory\n    ) {\n        (string memory name, ) = getSolarSystem(id);\n        return name;\n    }\n\n    function getSize(uint8 id) external pure returns (\n        uint8\n    ) {\n        ( , uint8[5] memory template) = getSolarSystem(id);\n        return template[size];\n    }\n\n    function getClass(uint8 id) external pure returns (\n        uint8\n    ) {\n        ( , uint8[5] memory template) = getSolarSystem(id);\n        return template[class];\n    }\n\n    function getRings(uint8 id) external pure returns (\n        uint8\n    ) {\n        ( , uint8[5] memory template) = getSolarSystem(id);\n        return template[rings];\n    }\n\n    function getSlot(uint8 id) external pure returns (\n        uint8\n    ) {\n        ( , uint8[5] memory template) = getSolarSystem(id);\n        return template[slot];\n    }\n\n    function getSpeed(uint8 id) external pure returns (\n        uint8\n    ) {\n        ( , uint8[5] memory template) = getSolarSystem(id);\n        return template[speed];\n    }\n\n    /* get whole object */\n    //TODO: make this a datastructure and reduce contract size\n    function getSolarSystem(\n        uint8 index\n    ) internal pure returns(\n        string memory, // name\n        uint8[5] memory\n    ) {\n        if (index == 0) {\n            return (\n                'Mercury', [\n                    planet,\n                    3,   //size\n                    1,   //class K, Desert Wasteland\n                    0,   //rings\n                    250  //orbital speed\n                ]\n            );\n        }\n\n        if (index == 1) {\n             return (\n                'Icarus', [\n                    station,\n                    1,   //size\n                    0,   //class\n                    0,   //\n                    15   //oribtal speed\n                ]\n            );\n        }\n\n        if (index == 2) {\n            return (\n                'Venus', [\n                    planet,\n                    12,  //size\n                    5,   //class H, Volcanic\n                    0,   //rings\n                    83   //orbital speed\n                ]\n            );\n        }\n\n        if (index == 3) {\n            return (\n                'Port Hesperus', [\n                    station,\n                    1,   //size\n                    0,   //class\n                    1,   //slot\n                    15   //orbital speed\n                ]\n            );\n        }\n\n        if (index == 4) {\n            return (\n                'Earth', [\n                    planet,\n                    12,  //size\n                    0,   //class M, Earthline\n                    0,   //rings\n                    50   //orbital speed\n                ]\n            );\n        }\n\n        if (index == 5) {\n            return (\n                'I.S.S.', [\n                    station,\n                    6,   //size\n                    0,   //class\n                    0,   //\n                    10   //orbital speed\n                ]\n            );\n        }\n\n        if (index == 6) {\n            return (\n                'Luna', [\n                    moon,\n                    10,   //size\n                    1,   //class K, Desert Wasteland\n                    1,   //slot\n                    100   //orbital speed\n                ]\n            );\n        }\n\n        if (index == 7) {\n            return (\n                'Mars', [\n                    planet,\n                    6,   //size\n                    1,   //class K, Desert Wasteland\n                    0,   //rings\n                    26   //orbital speed\n                ]\n            );\n        }\n\n        if (index == 8) {\n            return (\n                'Tiangong', [\n                    station,\n                    4,   //size\n                    4,   //class K, Desert Wasteland\n                    0,   //\n                    15   //orbital speed\n                ]\n            );\n        }\n\n        if (index == 9) {\n            return (\n                'Phobos', [\n                    moon,\n                    1,   //size\n                    1,   //class K, Desert Wasteland\n                    0,   //slot\n                    185  //orbital speed\n                ]\n            );\n        }\n\n        if (index == 10) {\n            return (\n                'Deimos', [\n                    moon,\n                    1,   //size\n                    1,   //class K, Desert Wasteland\n                    3,   //slot\n                    42   //orbital speed\n                ]\n            );\n        }\n\n        if (index == 11) {\n            return (\n                'Jupiter', [\n                    planet,\n                    54,  //size\n                    6,   //class U, Gas / Vapor\n                    0,   //rings\n                    5    //orbital speed\n                ]\n            );\n        }\n\n        if (index == 12) {\n            return (\n                'Tycho Station', [\n                    station,\n                    12,  //size\n                    0,   //class\n                    0,   //\n                    7    //orbital speed\n                ]\n            );\n        }\n\n        if (index == 13) {\n            return (\n                'Io', [\n                    moon,\n                    10,   //size\n                    1,   //class K, Desert Wasteland\n                    1,   //slot\n                    41   //orbital speed\n                ]\n            );\n        }\n\n        if (index == 14) {\n            return (\n                'Europa', [\n                    moon,\n                    8,   //size\n                    1,   //class K, Desert Wasteland\n                    2,   //slots\n                    42   //orbital speed\n                ]\n            );\n        }\n\n        if (index == 15) {\n            return (\n                'Ganymede', [\n                    moon,\n                    14,   //size\n                    1,    //class K, Desert Wasteland\n                    3,    //slot\n                    56    //orbital speed\n                ]\n            );\n        }\n\n        if (index == 16) {\n            return (\n                'Callisto', [\n                    moon,\n                    14,   //size\n                    1,    //class K, Desert Wasteland\n                    4,    //slot\n                    26    //orbital speed\n                ]\n            );\n        }\n\n        if (index == 17) {\n            return (\n                'Saturn', [\n                    planet,\n                    36,  //size\n                    6,   //class U, Gas / Vapor\n                    10,  //rings\n                    4    //orbital speed\n                ]\n            );\n        }\n\n        if (index == 18) {\n            return (\n                'Ticonderoga', [\n                    station,\n                    10,  //size\n                    1,   //class\n                    0,   //\n                    15   //orbital speed\n                ]\n            );\n        }\n\n        if (index == 19) {\n            return (\n                'Enceladus', [\n                    moon,\n                    3,   //size\n                    1,   //class K, Desert Wasteland\n                    0,   //slot\n                    111  //orbital speed\n                ]\n            );\n        }\n\n        if (index == 20) {\n            return (\n                'Tethys', [\n                    moon,\n                    3,   //size\n                    1,   //class K, Desert Wasteland\n                    1,   //slot\n                    46   //orbital speed\n                ]\n            );\n        }\n\n        if (index == 21) {\n            return (\n                'Dione', [\n                    moon,\n                    3,   //size\n                    1,   //class K, Desert Wasteland\n                    2,   //slot\n                    21   //orbital speed\n                ]\n            );\n        }\n\n        if (index == 22) {\n            return (\n                'Rhea', [\n                    moon,\n                    5,   //size\n                    1,   //class K, Desert Wasteland\n                    3,   //slot\n                    71   //orbital speed\n                ]\n            );\n        }\n\n        if (index == 23) {\n            return (\n                'Titan', [\n                    moon,\n                    14,   //size\n                    1,   //class K, Desert Wasteland\n                    4,   //slot\n                    67   //orbital speed\n                ]\n            );\n        }\n\n        if (index == 24) {\n            return (\n                'Iapetus', [\n                    moon,\n                    5,   //size\n                    1,   //class K, Desert Wasteland\n                    5,   //slot\n                    31   //orbital speed\n                ]\n            );\n        }\n\n        if (index == 25) {\n            return (\n                'Uranus', [\n                    planet,\n                    24,  //size\n                    4,   //class C, Glacial / Ice\n                    1,   //rings\n                    3    //orbital speed\n                ]\n            );\n        }\n\n        if (index == 26) {\n            return (\n                'Oberon', [\n                    station,\n                    3,   //size\n                    0,   //class\n                    0,   //\n                    15   //orbital speed\n                ]\n            );\n        }\n\n        if (index == 27) {\n            return (\n                'Puck', [\n                    moon,\n                    1,   //size\n                    1,   //class K, Desert Wasteland\n                    0,   //slot\n                    29   //orbital speed\n                ]\n            );\n        }\n\n        if (index == 28) {\n            return (\n                'Miranda', [\n                    moon,\n                    3,   //size\n                    1,   //class K, Desert Wasteland\n                    1,   //slot\n                    5    //orbital speed\n                ]\n            );\n        }\n\n        if (index == 29) {\n            return (\n                'Ariel', [\n                    moon,\n                    5,   //size\n                    1,   //class K, Desert Wasteland\n                    2,   //slot\n                    33   //orbital speed\n                ]\n            );\n        }\n\n        if (index == 30) {\n            return (\n                'Umbriel', [\n                    moon,\n                    5,   //size\n                    1,   //class K, Desert Wasteland\n                    3,   //slot\n                    10   //orbital speed\n                ]\n            );\n        }\n\n        if (index == 31) {\n            return (\n                'Titania', [\n                    moon,\n                    5,   //size\n                    1,   //class K, Desert Wasteland\n                    4,   //slot\n                    41   //orbital speed\n                ]\n            );\n        }\n\n        if (index == 32) {\n            return (\n                'Oberon', [\n                    moon,\n                    5,   //size\n                    1,   //class K, Desert Wasteland\n                    5,   //slot\n                    20   //orbital speed\n                ]\n            );\n        }\n\n        if (index == 33) {\n            return (\n                'Neptune', [\n                    planet,\n                    24,  //size\n                    4,   //class C, Glacial / Ice\n                    0,   //rings\n                    10   //orbital speed\n                ]\n            );\n        }\n\n        if (index == 34) {\n            return (\n                'Terra Venture', [\n                    station,\n                    3,   //size\n                    0,   //class\n                    0,   //\n                    15   //orbital speed\n                ]\n            );\n        }\n\n        if (index == 35) {\n            return (\n                'Proteus', [\n                    moon,\n                    1,   //size\n                    1,   //class K, Desert Wasteland\n                    1,   //slot\n                    25   //orbital speed\n                ]\n            );\n        }\n\n        if (index == 36) {\n            return (\n                'Triton', [\n                    moon,\n                    9,   //size\n                    1,   //class K, Desert Wasteland\n                    2,   //slot\n                    22   //orbital speed\n                ]\n            );\n        }\n\n        if (index == 37) {\n            return (\n                'Nereid', [\n                    moon,\n                    1,   //size\n                    1,   //class K, Desert Wasteland\n                    3,   //slot\n                    28   //orbital speed\n                ]\n            );\n        }\n\n        if (index == 38) {\n            return (\n                'Pluto', [\n                    planet,\n                    1,   //size\n                    1,   //class K, Desert Wasteland\n                    0,   //rings or slots\n                    1    //orbital speed\n                ]\n            );\n        }\n\n        if (index == 39) {\n            return (\n                'Nerva Beacon', [\n                    station,\n                    1,   //size\n                    1,   //class\n                    0,   //\n                    15    //orbital speed\n                ]\n            );\n        }\n\n        if (index == 40) {\n            return (\n                'Charon', [\n                    moon,\n                    1,   //size\n                    1,   //class K, Desert Wasteland\n                    3,   //slot\n                    21   //orbital speed\n                ]\n            );\n        }\n\n        return (\n            '', [\n                nothing,\n                0,\n                0,\n                0,\n                0\n            ]\n        );\n    }\n}",
  "sourcePath": "/home/koda/projects/orbiter8/prototype/contracts/Orbiter8/StarSystems/SystemObjects/presets/PresetLibrary.sol",
  "compiler": {
    "name": "solc",
    "version": "0.5.16+commit.9c3226ce.Emscripten.clang"
  },
  "schemaVersion": "3.4.3",
  "updatedAt": "2023-02-28T03:10:36.637Z",
  "networkType": "ethereum",
  "devdoc": {
    "methods": {}
  },
  "userdoc": {
    "methods": {}
  }
}