{
  "contractName": "ShipLibrary",
  "abi": [
    {
      "constant": true,
      "inputs": [],
      "name": "maxHolds",
      "outputs": [
        {
          "internalType": "uint8",
          "name": "",
          "type": "uint8"
        }
      ],
      "payable": false,
      "stateMutability": "view",
      "type": "function"
    }
  ],
  "bytecode": "0x61011e610026600b82828239805160001a60731461001957fe5b30600052607381538281f3fe7300000000000000000000000000000000000000003014608060405260043610603d5760003560e01c80633cad3b281460425780637e20163f14605e575b600080fd5b604860a2565b6040805160ff9092168252519081900360200190f35b818015606957600080fd5b5060a060048036036040811015607e57600080fd5b508035906020013573ffffffffffffffffffffffffffffffffffffffff1660a7565b005b60fa81565b81547fffffffffffffffffffffffff00000000000000000000000000000000000000001673ffffffffffffffffffffffffffffffffffffffff9190911617905556fea265627a7a72315820e96272f400bf8cfc26822d7a86255dc694ba72a4b6a82fb761a1b949cbb32c2064736f6c63430005100032",
  "source": "pragma solidity >=0.5.0 <0.6.0;\n\nimport \"../../../Tokens/ShipTokens.sol\";\n//import \"@openzeppelin/contracts/math/SafeMath.sol\";\n\nlibrary ShipLibrary {\n\n    /**************************************\n    *\n    * MODELS\n    *\n    ***************************************/\n\n    uint8 public constant maxHolds = 250;\n\n    // Structures\n    struct Ship {\n        string name;\n        uint currentStarSystem;\n        uint256 currentOrbit;\n        uint8 cargoLimit;\n        uint8 equipment;\n        uint8 fuel;\n        uint8 organics;\n    }\n\n    struct ShipStorage {\n        address shipTokensAddress;\n        Ship[] ships;\n        mapping (address => uint) ownerToOccupiedShip;\n        //todo: could be a value on the avatar instead of this mapping\n    }\n\n    // Modifiers\n    modifier mustOwnShip (\n        ShipStorage storage self,\n        uint256 shipId\n    ) {\n        require(ShipTokens(self.shipTokensAddress).ownerOf(shipId) == msg.sender, 'Must be your ship.');\n        _;\n    }\n\n    /**************************************\n    *\n    * VIEWS\n    *\n    ***************************************/\n\n    function getMyShip(ShipStorage storage self) internal view returns(\n        string memory, //name\n        uint,          //star system\n        uint,          //orbit\n        uint8,         //cargo limit\n        uint8,         //equipment\n        uint8,         //fuel\n        uint8          //organics\n    )  {\n        uint shipId = self.ownerToOccupiedShip[msg.sender];\n        return (\n            self.ships[shipId].name,\n            self.ships[shipId].currentStarSystem,\n            self.ships[shipId].currentOrbit,\n            self.ships[shipId].cargoLimit,\n            self.ships[shipId].equipment,\n            self.ships[shipId].fuel,\n            self.ships[shipId].organics\n        );\n    }\n\n    function getMyShipId(ShipStorage storage self) internal view returns(uint)  {\n        return self.ownerToOccupiedShip[msg.sender];\n    }\n\n    function getMyShipLocation(ShipStorage storage self) internal view returns(uint)  {\n        uint shipId = self.ownerToOccupiedShip[msg.sender];\n        return self.ships[shipId].currentStarSystem;\n    }\n\n    function getMyShipName(ShipStorage storage self) internal view returns(string memory) {\n        uint shipId = self.ownerToOccupiedShip[msg.sender];\n        return self.ships[shipId].name;\n    }\n\n    function getShipTokenizer(ShipStorage storage self) internal view returns(address) {\n        return self.shipTokensAddress;\n    }\n\n    //todo: should probably only display cargo for own ship\n    function getShip(\n        ShipStorage storage self,\n        uint256 shipId\n    ) internal view returns(\n        string memory, //name\n        uint,          //star system\n        uint,          //orbit\n        address        //owner\n    )  {\n        return (\n            self.ships[shipId].name,\n            self.ships[shipId].currentStarSystem,\n            self.ships[shipId].currentOrbit,\n            ShipTokens(self.shipTokensAddress).ownerOf(shipId)\n        );\n    }\n\n    /**************************************\n    *\n    * CONTROLS\n    *\n    ***************************************/\n\n    function setShipTokenizer(\n        ShipStorage storage self,\n        address tokenAddress\n    ) public {\n        self.shipTokensAddress = tokenAddress;\n    }\n\n    function createMyShip(\n        ShipStorage storage self,\n        string memory _name\n    ) internal returns (uint) {\n        uint shipId = self.ships.push(Ship(\n            _name,\n            1, //sol\n            3, //earth\n            5,//holds\n            1, //equipment\n            1, //fuel\n            1) //organics\n        )-1;\n        //auto occupy\n        self.ownerToOccupiedShip[msg.sender] = shipId;\n        //mint token\n        ShipTokens(self.shipTokensAddress).mintShip(shipId, msg.sender);\n\n        return shipId;\n    }\n\n    function addHolds(\n        ShipStorage storage self,\n        uint8 holds\n    ) internal {\n        uint shipId = self.ownerToOccupiedShip[msg.sender];\n        require ((uint256(self.ships[shipId].cargoLimit) + uint256(holds)) <= maxHolds, \"Maxed Out\");\n        self.ships[shipId].cargoLimit += holds;\n        //TODO: replace this with safe math\n    }\n\n    function setMyShipOrbit (\n        ShipStorage storage self,\n        uint256 orbit\n    ) internal  {\n        uint shipId = self.ownerToOccupiedShip[msg.sender];\n        self.ships[shipId].currentOrbit = orbit;\n    }\n\n    function boardShip(ShipStorage storage self, uint _shipId) internal mustOwnShip(self, _shipId) {\n        self.ownerToOccupiedShip[msg.sender] = _shipId;\n    }\n\n    function moveMyShip(ShipStorage storage self, uint256 _systemId) internal {\n        self.ships[self.ownerToOccupiedShip[msg.sender]].currentStarSystem = _systemId;\n        self.ships[self.ownerToOccupiedShip[msg.sender]].currentOrbit = 0;\n    }\n\n    function renameMyShip(ShipStorage storage self, string memory _newName) internal {\n        uint shipId = self.ownerToOccupiedShip[msg.sender];\n        self.ships[shipId].name = _newName;\n    }\n\n    function modifyMyShipCargo(\n        ShipStorage storage self,\n        int16 equipment,\n        int16 fuel,\n        int16 organics\n    ) internal {\n        uint shipId = self.ownerToOccupiedShip[msg.sender];\n\n        self.ships[shipId].equipment = modifiedCargo(self.ships[shipId].equipment, equipment);\n        self.ships[shipId].fuel = modifiedCargo(self.ships[shipId].fuel, fuel);\n        self.ships[shipId].organics = modifiedCargo(self.ships[shipId].organics, organics);\n        uint newCargoLoad = uint(self.ships[shipId].equipment + self.ships[shipId].fuel + self.ships[shipId].organics);\n        require(newCargoLoad <= self.ships[shipId].cargoLimit, 'Too much cargo.');\n    }\n\n    function modifiedCargo(uint16 current, int16 change) internal pure returns (uint8) {\n        int256 finalVal = int256(current) + int256(change);\n        require (finalVal >= 0, 'over sold');\n        return uint8(finalVal);\n    }\n\n}",
  "sourcePath": "/home/koda/projects/orbiter8/prototype/contracts/Orbiter8/StarSystems/SystemObjects/ShipLibrary.sol",
  "compiler": {
    "name": "solc",
    "version": "0.5.16+commit.9c3226ce.Emscripten.clang"
  },
  "schemaVersion": "3.4.3",
  "updatedAt": "2023-02-28T03:10:36.615Z",
  "networkType": "ethereum",
  "devdoc": {
    "methods": {}
  },
  "userdoc": {
    "methods": {
      "setShipTokenizer(ShipLibrary.ShipStorage storage,address)": {
        "notice": "************************************    * CONTROLS    **************************************"
      }
    }
  }
}